{
  "_format": "hh-sol-artifact-1",
  "contractName": "BillingHistory",
  "sourceName": "contracts/BillingHistory.sol",
  "abi": [
    {
      "inputs": [],
      "stateMutability": "nonpayable",
      "type": "constructor"
    },
    {
      "anonymous": false,
      "inputs": [
        {
          "indexed": true,
          "internalType": "address",
          "name": "hospital",
          "type": "address"
        },
        {
          "indexed": false,
          "internalType": "uint256",
          "name": "amount",
          "type": "uint256"
        },
        {
          "indexed": false,
          "internalType": "int256",
          "name": "newBalance",
          "type": "int256"
        }
      ],
      "name": "CreditsAdded",
      "type": "event"
    },
    {
      "anonymous": false,
      "inputs": [
        {
          "indexed": true,
          "internalType": "address",
          "name": "hospital",
          "type": "address"
        },
        {
          "indexed": false,
          "internalType": "uint256",
          "name": "amount",
          "type": "uint256"
        },
        {
          "indexed": false,
          "internalType": "int256",
          "name": "newBalance",
          "type": "int256"
        }
      ],
      "name": "CreditsDeducted",
      "type": "event"
    },
    {
      "anonymous": false,
      "inputs": [
        {
          "indexed": true,
          "internalType": "address",
          "name": "hospital",
          "type": "address"
        },
        {
          "indexed": false,
          "internalType": "uint256",
          "name": "timestamp",
          "type": "uint256"
        }
      ],
      "name": "MCIssued",
      "type": "event"
    },
    {
      "inputs": [
        {
          "internalType": "address",
          "name": "_hospital",
          "type": "address"
        },
        {
          "internalType": "uint256",
          "name": "_amount",
          "type": "uint256"
        }
      ],
      "name": "addCredits",
      "outputs": [],
      "stateMutability": "nonpayable",
      "type": "function"
    },
    {
      "inputs": [],
      "name": "admin",
      "outputs": [
        {
          "internalType": "address",
          "name": "",
          "type": "address"
        }
      ],
      "stateMutability": "view",
      "type": "function"
    },
    {
      "inputs": [
        {
          "internalType": "address",
          "name": "_hospital",
          "type": "address"
        }
      ],
      "name": "getHospitalBalance",
      "outputs": [
        {
          "internalType": "int256",
          "name": "balance",
          "type": "int256"
        }
      ],
      "stateMutability": "view",
      "type": "function"
    },
    {
      "inputs": [
        {
          "internalType": "address",
          "name": "_hospital",
          "type": "address"
        }
      ],
      "name": "getHospitalMCHistory",
      "outputs": [
        {
          "components": [
            {
              "internalType": "address",
              "name": "hospital",
              "type": "address"
            },
            {
              "internalType": "uint256",
              "name": "timestamp",
              "type": "uint256"
            }
          ],
          "internalType": "struct BillingHistory.MCRecord[]",
          "name": "records",
          "type": "tuple[]"
        }
      ],
      "stateMutability": "view",
      "type": "function"
    },
    {
      "inputs": [],
      "name": "getMCCount",
      "outputs": [
        {
          "internalType": "uint256",
          "name": "count",
          "type": "uint256"
        }
      ],
      "stateMutability": "view",
      "type": "function"
    },
    {
      "inputs": [],
      "name": "getMCHistory",
      "outputs": [
        {
          "components": [
            {
              "internalType": "address",
              "name": "hospital",
              "type": "address"
            },
            {
              "internalType": "uint256",
              "name": "timestamp",
              "type": "uint256"
            }
          ],
          "internalType": "struct BillingHistory.MCRecord[]",
          "name": "records",
          "type": "tuple[]"
        }
      ],
      "stateMutability": "view",
      "type": "function"
    },
    {
      "inputs": [
        {
          "internalType": "address",
          "name": "",
          "type": "address"
        }
      ],
      "name": "hospitalCredits",
      "outputs": [
        {
          "internalType": "int256",
          "name": "",
          "type": "int256"
        }
      ],
      "stateMutability": "view",
      "type": "function"
    },
    {
      "inputs": [
        {
          "internalType": "address",
          "name": "_hospital",
          "type": "address"
        }
      ],
      "name": "issueDigitalMC",
      "outputs": [],
      "stateMutability": "nonpayable",
      "type": "function"
    },
    {
      "inputs": [
        {
          "internalType": "uint256",
          "name": "",
          "type": "uint256"
        }
      ],
      "name": "mcHistory",
      "outputs": [
        {
          "internalType": "address",
          "name": "hospital",
          "type": "address"
        },
        {
          "internalType": "uint256",
          "name": "timestamp",
          "type": "uint256"
        }
      ],
      "stateMutability": "view",
      "type": "function"
    }
  ],
  "bytecode": "0x608060405234801561001057600080fd5b50336000806101000a81548173ffffffffffffffffffffffffffffffffffffffff021916908373ffffffffffffffffffffffffffffffffffffffff160217905550611133806100606000396000f3fe608060405234801561001057600080fd5b50600436106100935760003560e01c80637895e35d116100665780637895e35d1461012157806386e686e114610151578063871ff40514610181578063bccb78b01461019d578063f851a440146101cd57610093565b80631d0c0bab146100985780632b76e3f7146100b4578063566a6d55146100e55780636c16d0e214610103575b600080fd5b6100b260048036038101906100ad9190610af0565b6101eb565b005b6100ce60048036038101906100c99190610b53565b610439565b6040516100dc929190610b9e565b60405180910390f35b6100ed61048d565b6040516100fa9190610cc3565b60405180910390f35b61010b61054c565b6040516101189190610ce5565b60405180910390f35b61013b60048036038101906101369190610af0565b610559565b6040516101489190610d19565b60405180910390f35b61016b60048036038101906101669190610af0565b6105a2565b6040516101789190610cc3565b60405180910390f35b61019b60048036038101906101969190610d34565b6107f8565b005b6101b760048036038101906101b29190610af0565b610a21565b6040516101c49190610d19565b60405180910390f35b6101d5610a39565b6040516101e29190610d74565b60405180910390f35b600073ffffffffffffffffffffffffffffffffffffffff168173ffffffffffffffffffffffffffffffffffffffff160361025a576040517f08c379a000000000000000000000000000000000000000000000000000000000815260040161025190610dec565b60405180910390fd5b600260405180604001604052808373ffffffffffffffffffffffffffffffffffffffff16815260200142815250908060018154018082558091505060019003906000526020600020906002020160009091909190915060008201518160000160006101000a81548173ffffffffffffffffffffffffffffffffffffffff021916908373ffffffffffffffffffffffffffffffffffffffff16021790555060208201518160010155505060018060008373ffffffffffffffffffffffffffffffffffffffff1673ffffffffffffffffffffffffffffffffffffffff16815260200190815260200160002060008282546103529190610e3b565b925050819055508073ffffffffffffffffffffffffffffffffffffffff167f80db69ac19e28de600394e59d134bf0e2413d2320ad4e467cffb9386823106314260405161039f9190610ce5565b60405180910390a28073ffffffffffffffffffffffffffffffffffffffff167f15c584b9e41714a4d5f3ec04367c7630cc45eb5b349b654d7187129db0d2f74660018060008573ffffffffffffffffffffffffffffffffffffffff1673ffffffffffffffffffffffffffffffffffffffff1681526020019081526020016000205460405161042e929190610ec3565b60405180910390a250565b6002818154811061044957600080fd5b90600052602060002090600202016000915090508060000160009054906101000a900473ffffffffffffffffffffffffffffffffffffffff16908060010154905082565b60606002805480602002602001604051908101604052809291908181526020016000905b8282101561054357838290600052602060002090600202016040518060400160405290816000820160009054906101000a900473ffffffffffffffffffffffffffffffffffffffff1673ffffffffffffffffffffffffffffffffffffffff1673ffffffffffffffffffffffffffffffffffffffff168152602001600182015481525050815260200190600101906104b1565b50505050905090565b6000600280549050905090565b6000600160008373ffffffffffffffffffffffffffffffffffffffff1673ffffffffffffffffffffffffffffffffffffffff168152602001908152602001600020549050919050565b60606000805b600280549050811015610649578373ffffffffffffffffffffffffffffffffffffffff16600282815481106105e0576105df610eec565b5b906000526020600020906002020160000160009054906101000a900473ffffffffffffffffffffffffffffffffffffffff1673ffffffffffffffffffffffffffffffffffffffff160361063c57818061063890610f1b565b9250505b80806001019150506105a8565b508067ffffffffffffffff81111561066457610663610f63565b5b60405190808252806020026020018201604052801561069d57816020015b61068a610a5d565b8152602001906001900390816106825790505b5091506000805b6002805490508110156107f0578473ffffffffffffffffffffffffffffffffffffffff16600282815481106106dc576106db610eec565b5b906000526020600020906002020160000160009054906101000a900473ffffffffffffffffffffffffffffffffffffffff1673ffffffffffffffffffffffffffffffffffffffff16036107e3576002818154811061073d5761073c610eec565b5b90600052602060002090600202016040518060400160405290816000820160009054906101000a900473ffffffffffffffffffffffffffffffffffffffff1673ffffffffffffffffffffffffffffffffffffffff1673ffffffffffffffffffffffffffffffffffffffff1681526020016001820154815250508483815181106107c9576107c8610eec565b5b602002602001018190525081806107df90610f1b565b9250505b80806001019150506106a4565b505050919050565b60008054906101000a900473ffffffffffffffffffffffffffffffffffffffff1673ffffffffffffffffffffffffffffffffffffffff163373ffffffffffffffffffffffffffffffffffffffff1614610886576040517f08c379a000000000000000000000000000000000000000000000000000000000815260040161087d90611004565b60405180910390fd5b600073ffffffffffffffffffffffffffffffffffffffff168273ffffffffffffffffffffffffffffffffffffffff16036108f5576040517f08c379a00000000000000000000000000000000000000000000000000000000081526004016108ec90610dec565b60405180910390fd5b60008111610938576040517f08c379a000000000000000000000000000000000000000000000000000000000815260040161092f90611070565b60405180910390fd5b80600160008473ffffffffffffffffffffffffffffffffffffffff1673ffffffffffffffffffffffffffffffffffffffff16815260200190815260200160002060008282546109879190611090565b925050819055508173ffffffffffffffffffffffffffffffffffffffff167fcb6affcb64d913df4acd7f8f3132361e0b6cbe96ad15bb0e31c10f8c4f41e44582600160008673ffffffffffffffffffffffffffffffffffffffff1673ffffffffffffffffffffffffffffffffffffffff16815260200190815260200160002054604051610a159291906110d4565b60405180910390a25050565b60016020528060005260406000206000915090505481565b60008054906101000a900473ffffffffffffffffffffffffffffffffffffffff1681565b6040518060400160405280600073ffffffffffffffffffffffffffffffffffffffff168152602001600081525090565b600080fd5b600073ffffffffffffffffffffffffffffffffffffffff82169050919050565b6000610abd82610a92565b9050919050565b610acd81610ab2565b8114610ad857600080fd5b50565b600081359050610aea81610ac4565b92915050565b600060208284031215610b0657610b05610a8d565b5b6000610b1484828501610adb565b91505092915050565b6000819050919050565b610b3081610b1d565b8114610b3b57600080fd5b50565b600081359050610b4d81610b27565b92915050565b600060208284031215610b6957610b68610a8d565b5b6000610b7784828501610b3e565b91505092915050565b610b8981610ab2565b82525050565b610b9881610b1d565b82525050565b6000604082019050610bb36000830185610b80565b610bc06020830184610b8f565b9392505050565b600081519050919050565b600082825260208201905092915050565b6000819050602082019050919050565b610bfc81610ab2565b82525050565b610c0b81610b1d565b82525050565b604082016000820151610c276000850182610bf3565b506020820151610c3a6020850182610c02565b50505050565b6000610c4c8383610c11565b60408301905092915050565b6000602082019050919050565b6000610c7082610bc7565b610c7a8185610bd2565b9350610c8583610be3565b8060005b83811015610cb6578151610c9d8882610c40565b9750610ca883610c58565b925050600181019050610c89565b5085935050505092915050565b60006020820190508181036000830152610cdd8184610c65565b905092915050565b6000602082019050610cfa6000830184610b8f565b92915050565b6000819050919050565b610d1381610d00565b82525050565b6000602082019050610d2e6000830184610d0a565b92915050565b60008060408385031215610d4b57610d4a610a8d565b5b6000610d5985828601610adb565b9250506020610d6a85828601610b3e565b9150509250929050565b6000602082019050610d896000830184610b80565b92915050565b600082825260208201905092915050565b7f496e76616c696420686f73706974616c20616464726573730000000000000000600082015250565b6000610dd6601883610d8f565b9150610de182610da0565b602082019050919050565b60006020820190508181036000830152610e0581610dc9565b9050919050565b7f4e487b7100000000000000000000000000000000000000000000000000000000600052601160045260246000fd5b6000610e4682610d00565b9150610e5183610d00565b9250828203905081811260008412168282136000851215161715610e7857610e77610e0c565b5b92915050565b6000819050919050565b6000819050919050565b6000610ead610ea8610ea384610e7e565b610e88565b610b1d565b9050919050565b610ebd81610e92565b82525050565b6000604082019050610ed86000830185610eb4565b610ee56020830184610d0a565b9392505050565b7f4e487b7100000000000000000000000000000000000000000000000000000000600052603260045260246000fd5b6000610f2682610b1d565b91507fffffffffffffffffffffffffffffffffffffffffffffffffffffffffffffffff8203610f5857610f57610e0c565b5b600182019050919050565b7f4e487b7100000000000000000000000000000000000000000000000000000000600052604160045260246000fd5b7f4f6e6c792061646d696e2063616e2063616c6c20746869732066756e6374696f60008201527f6e00000000000000000000000000000000000000000000000000000000000000602082015250565b6000610fee602183610d8f565b9150610ff982610f92565b604082019050919050565b6000602082019050818103600083015261101d81610fe1565b9050919050565b7f416d6f756e74206d7573742062652067726561746572207468616e2030000000600082015250565b600061105a601d83610d8f565b915061106582611024565b602082019050919050565b600060208201905081810360008301526110898161104d565b9050919050565b600061109b82610d00565b91506110a683610d00565b9250828201905082811215600083121683821260008412151617156110ce576110cd610e0c565b5b92915050565b60006040820190506110e96000830185610b8f565b6110f66020830184610d0a565b939250505056fea2646970667358221220ebdaca47c4587c21de299b3e36eefd1edbf9bfd430cf81f60a50686b50bedee364736f6c63430008180033",
  "linkReferences": {},
  "deployedLinkReferences": {}
}