{
  "_format": "hh-sol-artifact-1",
  "contractName": "BillingHistory",
  "sourceName": "contracts/BillingHistory.sol",
  "abi": [
    {
      "inputs": [],
      "stateMutability": "nonpayable",
      "type": "constructor"
    },
    {
      "anonymous": false,
      "inputs": [
        {
          "indexed": true,
          "internalType": "address",
          "name": "hospital",
          "type": "address"
        },
        {
          "indexed": false,
          "internalType": "uint256",
          "name": "amount",
          "type": "uint256"
        },
        {
          "indexed": false,
          "internalType": "int256",
          "name": "newBalance",
          "type": "int256"
        }
      ],
      "name": "CreditsAdded",
      "type": "event"
    },
    {
      "anonymous": false,
      "inputs": [
        {
          "indexed": true,
          "internalType": "address",
          "name": "hospital",
          "type": "address"
        },
        {
          "indexed": false,
          "internalType": "uint256",
          "name": "amount",
          "type": "uint256"
        },
        {
          "indexed": false,
          "internalType": "int256",
          "name": "newBalance",
          "type": "int256"
        }
      ],
      "name": "CreditsDeducted",
      "type": "event"
    },
    {
      "anonymous": false,
      "inputs": [
        {
          "indexed": true,
          "internalType": "address",
          "name": "hospital",
          "type": "address"
        },
        {
          "indexed": false,
          "internalType": "uint256",
          "name": "timestamp",
          "type": "uint256"
        }
      ],
      "name": "MCIssued",
      "type": "event"
    },
    {
      "inputs": [
        {
          "internalType": "address",
          "name": "_hospital",
          "type": "address"
        },
        {
          "internalType": "uint256",
          "name": "_amount",
          "type": "uint256"
        }
      ],
      "name": "addCredits",
      "outputs": [],
      "stateMutability": "nonpayable",
      "type": "function"
    },
    {
      "inputs": [],
      "name": "admin",
      "outputs": [
        {
          "internalType": "address",
          "name": "",
          "type": "address"
        }
      ],
      "stateMutability": "view",
      "type": "function"
    },
    {
      "inputs": [
        {
          "internalType": "uint256",
          "name": "",
          "type": "uint256"
        }
      ],
      "name": "allHospitals",
      "outputs": [
        {
          "internalType": "address",
          "name": "",
          "type": "address"
        }
      ],
      "stateMutability": "view",
      "type": "function"
    },
    {
      "inputs": [],
      "name": "getAllHospitalBalances",
      "outputs": [
        {
          "components": [
            {
              "internalType": "address",
              "name": "hospital",
              "type": "address"
            },
            {
              "internalType": "int256",
              "name": "balance",
              "type": "int256"
            }
          ],
          "internalType": "struct BillingHistory.HospitalBalance[]",
          "name": "balances",
          "type": "tuple[]"
        }
      ],
      "stateMutability": "view",
      "type": "function"
    },
    {
      "inputs": [],
      "name": "getAllHospitals",
      "outputs": [
        {
          "internalType": "address[]",
          "name": "hospitals",
          "type": "address[]"
        }
      ],
      "stateMutability": "view",
      "type": "function"
    },
    {
      "inputs": [
        {
          "internalType": "address",
          "name": "_hospital",
          "type": "address"
        }
      ],
      "name": "getHospitalBalance",
      "outputs": [
        {
          "internalType": "int256",
          "name": "balance",
          "type": "int256"
        }
      ],
      "stateMutability": "view",
      "type": "function"
    },
    {
      "inputs": [],
      "name": "getHospitalCount",
      "outputs": [
        {
          "internalType": "uint256",
          "name": "count",
          "type": "uint256"
        }
      ],
      "stateMutability": "view",
      "type": "function"
    },
    {
      "inputs": [
        {
          "internalType": "address",
          "name": "_hospital",
          "type": "address"
        }
      ],
      "name": "getHospitalMCHistory",
      "outputs": [
        {
          "components": [
            {
              "internalType": "address",
              "name": "hospital",
              "type": "address"
            },
            {
              "internalType": "uint256",
              "name": "timestamp",
              "type": "uint256"
            }
          ],
          "internalType": "struct BillingHistory.MCRecord[]",
          "name": "records",
          "type": "tuple[]"
        }
      ],
      "stateMutability": "view",
      "type": "function"
    },
    {
      "inputs": [],
      "name": "getMCCount",
      "outputs": [
        {
          "internalType": "uint256",
          "name": "count",
          "type": "uint256"
        }
      ],
      "stateMutability": "view",
      "type": "function"
    },
    {
      "inputs": [],
      "name": "getMCHistory",
      "outputs": [
        {
          "components": [
            {
              "internalType": "address",
              "name": "hospital",
              "type": "address"
            },
            {
              "internalType": "uint256",
              "name": "timestamp",
              "type": "uint256"
            }
          ],
          "internalType": "struct BillingHistory.MCRecord[]",
          "name": "records",
          "type": "tuple[]"
        }
      ],
      "stateMutability": "view",
      "type": "function"
    },
    {
      "inputs": [
        {
          "internalType": "address",
          "name": "",
          "type": "address"
        }
      ],
      "name": "hospitalCredits",
      "outputs": [
        {
          "internalType": "int256",
          "name": "",
          "type": "int256"
        }
      ],
      "stateMutability": "view",
      "type": "function"
    },
    {
      "inputs": [
        {
          "internalType": "address",
          "name": "",
          "type": "address"
        }
      ],
      "name": "isRegisteredHospital",
      "outputs": [
        {
          "internalType": "bool",
          "name": "",
          "type": "bool"
        }
      ],
      "stateMutability": "view",
      "type": "function"
    },
    {
      "inputs": [
        {
          "internalType": "address",
          "name": "_hospital",
          "type": "address"
        }
      ],
      "name": "issueDigitalMC",
      "outputs": [],
      "stateMutability": "nonpayable",
      "type": "function"
    },
    {
      "inputs": [
        {
          "internalType": "uint256",
          "name": "",
          "type": "uint256"
        }
      ],
      "name": "mcHistory",
      "outputs": [
        {
          "internalType": "address",
          "name": "hospital",
          "type": "address"
        },
        {
          "internalType": "uint256",
          "name": "timestamp",
          "type": "uint256"
        }
      ],
      "stateMutability": "view",
      "type": "function"
    }
  ],
  "bytecode": "0x608060405234801561001057600080fd5b50336000806101000a81548173ffffffffffffffffffffffffffffffffffffffff021916908373ffffffffffffffffffffffffffffffffffffffff160217905550611828806100606000396000f3fe608060405234801561001057600080fd5b50600436106100ea5760003560e01c806386e686e11161008c578063c9b5a1ca11610066578063c9b5a1ca14610272578063d493cec9146102a2578063f851a440146102c0578063fe45a81d146102de576100ea565b806386e686e1146101f6578063871ff40514610226578063bccb78b014610242576100ea565b80634e9f7154116100c85780634e9f71541461016c578063566a6d551461018a5780636c16d0e2146101a85780637895e35d146101c6576100ea565b80631d0c0bab146100ef5780632b76e3f71461010b57806338cb99ff1461013c575b600080fd5b61010960048036038101906101049190610fcf565b6102fc565b005b61012560048036038101906101209190611032565b610553565b60405161013392919061107d565b60405180910390f35b61015660048036038101906101519190610fcf565b6105a7565b60405161016391906110c1565b60405180910390f35b6101746105c7565b604051610181919061119a565b60405180910390f35b610192610655565b60405161019f91906112a9565b60405180910390f35b6101b0610714565b6040516101bd91906112cb565b60405180910390f35b6101e060048036038101906101db9190610fcf565b610721565b6040516101ed91906112ff565b60405180910390f35b610210600480360381019061020b9190610fcf565b61076a565b60405161021d91906112a9565b60405180910390f35b610240600480360381019061023b919061131a565b6109c0565b005b61025c60048036038101906102579190610fcf565b610bf2565b60405161026991906112ff565b60405180910390f35b61028c60048036038101906102879190611032565b610c0a565b604051610299919061135a565b60405180910390f35b6102aa610c49565b6040516102b79190611462565b60405180910390f35b6102c8610dcb565b6040516102d5919061135a565b60405180910390f35b6102e6610def565b6040516102f391906112cb565b60405180910390f35b600073ffffffffffffffffffffffffffffffffffffffff168173ffffffffffffffffffffffffffffffffffffffff160361036b576040517f08c379a0000000000000000000000000000000000000000000000000000000008152600401610362906114e1565b60405180910390fd5b61037481610dfc565b600460405180604001604052808373ffffffffffffffffffffffffffffffffffffffff16815260200142815250908060018154018082558091505060019003906000526020600020906002020160009091909190915060008201518160000160006101000a81548173ffffffffffffffffffffffffffffffffffffffff021916908373ffffffffffffffffffffffffffffffffffffffff16021790555060208201518160010155505060018060008373ffffffffffffffffffffffffffffffffffffffff1673ffffffffffffffffffffffffffffffffffffffff168152602001908152602001600020600082825461046c9190611530565b925050819055508073ffffffffffffffffffffffffffffffffffffffff167f80db69ac19e28de600394e59d134bf0e2413d2320ad4e467cffb938682310631426040516104b991906112cb565b60405180910390a28073ffffffffffffffffffffffffffffffffffffffff167f15c584b9e41714a4d5f3ec04367c7630cc45eb5b349b654d7187129db0d2f74660018060008573ffffffffffffffffffffffffffffffffffffffff1673ffffffffffffffffffffffffffffffffffffffff168152602001908152602001600020546040516105489291906115b8565b60405180910390a250565b6004818154811061056357600080fd5b90600052602060002090600202016000915090508060000160009054906101000a900473ffffffffffffffffffffffffffffffffffffffff16908060010154905082565b60036020528060005260406000206000915054906101000a900460ff1681565b6060600280548060200260200160405190810160405280929190818152602001828054801561064b57602002820191906000526020600020905b8160009054906101000a900473ffffffffffffffffffffffffffffffffffffffff1673ffffffffffffffffffffffffffffffffffffffff1681526020019060010190808311610601575b5050505050905090565b60606004805480602002602001604051908101604052809291908181526020016000905b8282101561070b57838290600052602060002090600202016040518060400160405290816000820160009054906101000a900473ffffffffffffffffffffffffffffffffffffffff1673ffffffffffffffffffffffffffffffffffffffff1673ffffffffffffffffffffffffffffffffffffffff16815260200160018201548152505081526020019060010190610679565b50505050905090565b6000600480549050905090565b6000600160008373ffffffffffffffffffffffffffffffffffffffff1673ffffffffffffffffffffffffffffffffffffffff168152602001908152602001600020549050919050565b60606000805b600480549050811015610811578373ffffffffffffffffffffffffffffffffffffffff16600482815481106107a8576107a76115e1565b5b906000526020600020906002020160000160009054906101000a900473ffffffffffffffffffffffffffffffffffffffff1673ffffffffffffffffffffffffffffffffffffffff160361080457818061080090611610565b9250505b8080600101915050610770565b508067ffffffffffffffff81111561082c5761082b611658565b5b60405190808252806020026020018201604052801561086557816020015b610852610f0c565b81526020019060019003908161084a5790505b5091506000805b6004805490508110156109b8578473ffffffffffffffffffffffffffffffffffffffff16600482815481106108a4576108a36115e1565b5b906000526020600020906002020160000160009054906101000a900473ffffffffffffffffffffffffffffffffffffffff1673ffffffffffffffffffffffffffffffffffffffff16036109ab5760048181548110610905576109046115e1565b5b90600052602060002090600202016040518060400160405290816000820160009054906101000a900473ffffffffffffffffffffffffffffffffffffffff1673ffffffffffffffffffffffffffffffffffffffff1673ffffffffffffffffffffffffffffffffffffffff168152602001600182015481525050848381518110610991576109906115e1565b5b602002602001018190525081806109a790611610565b9250505b808060010191505061086c565b505050919050565b60008054906101000a900473ffffffffffffffffffffffffffffffffffffffff1673ffffffffffffffffffffffffffffffffffffffff163373ffffffffffffffffffffffffffffffffffffffff1614610a4e576040517f08c379a0000000000000000000000000000000000000000000000000000000008152600401610a45906116f9565b60405180910390fd5b600073ffffffffffffffffffffffffffffffffffffffff168273ffffffffffffffffffffffffffffffffffffffff1603610abd576040517f08c379a0000000000000000000000000000000000000000000000000000000008152600401610ab4906114e1565b60405180910390fd5b60008111610b00576040517f08c379a0000000000000000000000000000000000000000000000000000000008152600401610af790611765565b60405180910390fd5b610b0982610dfc565b80600160008473ffffffffffffffffffffffffffffffffffffffff1673ffffffffffffffffffffffffffffffffffffffff1681526020019081526020016000206000828254610b589190611785565b925050819055508173ffffffffffffffffffffffffffffffffffffffff167fcb6affcb64d913df4acd7f8f3132361e0b6cbe96ad15bb0e31c10f8c4f41e44582600160008673ffffffffffffffffffffffffffffffffffffffff1673ffffffffffffffffffffffffffffffffffffffff16815260200190815260200160002054604051610be69291906117c9565b60405180910390a25050565b60016020528060005260406000206000915090505481565b60028181548110610c1a57600080fd5b906000526020600020016000915054906101000a900473ffffffffffffffffffffffffffffffffffffffff1681565b606060028054905067ffffffffffffffff811115610c6a57610c69611658565b5b604051908082528060200260200182016040528015610ca357816020015b610c90610f3c565b815260200190600190039081610c885790505b50905060005b600280549050811015610dc757604051806040016040528060028381548110610cd557610cd46115e1565b5b9060005260206000200160009054906101000a900473ffffffffffffffffffffffffffffffffffffffff1673ffffffffffffffffffffffffffffffffffffffff1681526020016001600060028581548110610d3357610d326115e1565b5b9060005260206000200160009054906101000a900473ffffffffffffffffffffffffffffffffffffffff1673ffffffffffffffffffffffffffffffffffffffff1673ffffffffffffffffffffffffffffffffffffffff16815260200190815260200160002054815250828281518110610daf57610dae6115e1565b5b60200260200101819052508080600101915050610ca9565b5090565b60008054906101000a900473ffffffffffffffffffffffffffffffffffffffff1681565b6000600280549050905090565b600360008273ffffffffffffffffffffffffffffffffffffffff1673ffffffffffffffffffffffffffffffffffffffff16815260200190815260200160002060009054906101000a900460ff16610f09576002819080600181540180825580915050600190039060005260206000200160009091909190916101000a81548173ffffffffffffffffffffffffffffffffffffffff021916908373ffffffffffffffffffffffffffffffffffffffff1602179055506001600360008373ffffffffffffffffffffffffffffffffffffffff1673ffffffffffffffffffffffffffffffffffffffff16815260200190815260200160002060006101000a81548160ff0219169083151502179055505b50565b6040518060400160405280600073ffffffffffffffffffffffffffffffffffffffff168152602001600081525090565b6040518060400160405280600073ffffffffffffffffffffffffffffffffffffffff168152602001600081525090565b600080fd5b600073ffffffffffffffffffffffffffffffffffffffff82169050919050565b6000610f9c82610f71565b9050919050565b610fac81610f91565b8114610fb757600080fd5b50565b600081359050610fc981610fa3565b92915050565b600060208284031215610fe557610fe4610f6c565b5b6000610ff384828501610fba565b91505092915050565b6000819050919050565b61100f81610ffc565b811461101a57600080fd5b50565b60008135905061102c81611006565b92915050565b60006020828403121561104857611047610f6c565b5b60006110568482850161101d565b91505092915050565b61106881610f91565b82525050565b61107781610ffc565b82525050565b6000604082019050611092600083018561105f565b61109f602083018461106e565b9392505050565b60008115159050919050565b6110bb816110a6565b82525050565b60006020820190506110d660008301846110b2565b92915050565b600081519050919050565b600082825260208201905092915050565b6000819050602082019050919050565b61111181610f91565b82525050565b60006111238383611108565b60208301905092915050565b6000602082019050919050565b6000611147826110dc565b61115181856110e7565b935061115c836110f8565b8060005b8381101561118d5781516111748882611117565b975061117f8361112f565b925050600181019050611160565b5085935050505092915050565b600060208201905081810360008301526111b4818461113c565b905092915050565b600081519050919050565b600082825260208201905092915050565b6000819050602082019050919050565b6111f181610ffc565b82525050565b60408201600082015161120d6000850182611108565b50602082015161122060208501826111e8565b50505050565b600061123283836111f7565b60408301905092915050565b6000602082019050919050565b6000611256826111bc565b61126081856111c7565b935061126b836111d8565b8060005b8381101561129c5781516112838882611226565b975061128e8361123e565b92505060018101905061126f565b5085935050505092915050565b600060208201905081810360008301526112c3818461124b565b905092915050565b60006020820190506112e0600083018461106e565b92915050565b6000819050919050565b6112f9816112e6565b82525050565b600060208201905061131460008301846112f0565b92915050565b6000806040838503121561133157611330610f6c565b5b600061133f85828601610fba565b92505060206113508582860161101d565b9150509250929050565b600060208201905061136f600083018461105f565b92915050565b600081519050919050565b600082825260208201905092915050565b6000819050602082019050919050565b6113aa816112e6565b82525050565b6040820160008201516113c66000850182611108565b5060208201516113d960208501826113a1565b50505050565b60006113eb83836113b0565b60408301905092915050565b6000602082019050919050565b600061140f82611375565b6114198185611380565b935061142483611391565b8060005b8381101561145557815161143c88826113df565b9750611447836113f7565b925050600181019050611428565b5085935050505092915050565b6000602082019050818103600083015261147c8184611404565b905092915050565b600082825260208201905092915050565b7f496e76616c696420686f73706974616c20616464726573730000000000000000600082015250565b60006114cb601883611484565b91506114d682611495565b602082019050919050565b600060208201905081810360008301526114fa816114be565b9050919050565b7f4e487b7100000000000000000000000000000000000000000000000000000000600052601160045260246000fd5b600061153b826112e6565b9150611546836112e6565b925082820390508181126000841216828213600085121516171561156d5761156c611501565b5b92915050565b6000819050919050565b6000819050919050565b60006115a261159d61159884611573565b61157d565b610ffc565b9050919050565b6115b281611587565b82525050565b60006040820190506115cd60008301856115a9565b6115da60208301846112f0565b9392505050565b7f4e487b7100000000000000000000000000000000000000000000000000000000600052603260045260246000fd5b600061161b82610ffc565b91507fffffffffffffffffffffffffffffffffffffffffffffffffffffffffffffffff820361164d5761164c611501565b5b600182019050919050565b7f4e487b7100000000000000000000000000000000000000000000000000000000600052604160045260246000fd5b7f4f6e6c792061646d696e2063616e2063616c6c20746869732066756e6374696f60008201527f6e00000000000000000000000000000000000000000000000000000000000000602082015250565b60006116e3602183611484565b91506116ee82611687565b604082019050919050565b60006020820190508181036000830152611712816116d6565b9050919050565b7f416d6f756e74206d7573742062652067726561746572207468616e2030000000600082015250565b600061174f601d83611484565b915061175a82611719565b602082019050919050565b6000602082019050818103600083015261177e81611742565b9050919050565b6000611790826112e6565b915061179b836112e6565b9250828201905082811215600083121683821260008412151617156117c3576117c2611501565b5b92915050565b60006040820190506117de600083018561106e565b6117eb60208301846112f0565b939250505056fea26469706673582212201f15aafd66fde2fce6240ce8bf5c209618028f53d3f4f315cc3629aee8f5e6bc64736f6c63430008180033",
  "linkReferences": {},
  "deployedLinkReferences": {}
}