{
  "_format": "hh-sol-artifact-1",
  "contractName": "SarawakMedMVP",
  "sourceName": "contracts/SarawakMedMVP.sol",
  "abi": [
    {
      "inputs": [],
      "stateMutability": "nonpayable",
      "type": "constructor"
    },
    {
      "anonymous": false,
      "inputs": [
        {
          "indexed": true,
          "internalType": "address",
          "name": "doctorAddress",
          "type": "address"
        },
        {
          "indexed": true,
          "internalType": "address",
          "name": "patientAddress",
          "type": "address"
        },
        {
          "indexed": false,
          "internalType": "bool",
          "name": "success",
          "type": "bool"
        },
        {
          "indexed": false,
          "internalType": "uint256",
          "name": "timestamp",
          "type": "uint256"
        }
      ],
      "name": "AccessAttempted",
      "type": "event"
    },
    {
      "anonymous": false,
      "inputs": [
        {
          "indexed": true,
          "internalType": "address",
          "name": "patientAddress",
          "type": "address"
        },
        {
          "indexed": true,
          "internalType": "address",
          "name": "doctorAddress",
          "type": "address"
        },
        {
          "indexed": false,
          "internalType": "uint256",
          "name": "timestamp",
          "type": "uint256"
        }
      ],
      "name": "AccessGranted",
      "type": "event"
    },
    {
      "anonymous": false,
      "inputs": [
        {
          "indexed": true,
          "internalType": "address",
          "name": "patientAddress",
          "type": "address"
        },
        {
          "indexed": true,
          "internalType": "address",
          "name": "doctorAddress",
          "type": "address"
        },
        {
          "indexed": false,
          "internalType": "uint256",
          "name": "timestamp",
          "type": "uint256"
        }
      ],
      "name": "AccessRevoked",
      "type": "event"
    },
    {
      "anonymous": false,
      "inputs": [
        {
          "indexed": true,
          "internalType": "address",
          "name": "previousAdmin",
          "type": "address"
        },
        {
          "indexed": true,
          "internalType": "address",
          "name": "newAdmin",
          "type": "address"
        },
        {
          "indexed": false,
          "internalType": "uint256",
          "name": "timestamp",
          "type": "uint256"
        }
      ],
      "name": "AdminTransferCompleted",
      "type": "event"
    },
    {
      "anonymous": false,
      "inputs": [
        {
          "indexed": true,
          "internalType": "address",
          "name": "currentAdmin",
          "type": "address"
        },
        {
          "indexed": true,
          "internalType": "address",
          "name": "pendingAdmin",
          "type": "address"
        },
        {
          "indexed": false,
          "internalType": "uint256",
          "name": "timestamp",
          "type": "uint256"
        }
      ],
      "name": "AdminTransferProposed",
      "type": "event"
    },
    {
      "anonymous": false,
      "inputs": [
        {
          "indexed": true,
          "internalType": "address",
          "name": "billingAddress",
          "type": "address"
        },
        {
          "indexed": false,
          "internalType": "uint256",
          "name": "timestamp",
          "type": "uint256"
        }
      ],
      "name": "BillingContractSet",
      "type": "event"
    },
    {
      "anonymous": false,
      "inputs": [
        {
          "indexed": true,
          "internalType": "address",
          "name": "doctorAddress",
          "type": "address"
        },
        {
          "indexed": false,
          "internalType": "uint256",
          "name": "timestamp",
          "type": "uint256"
        }
      ],
      "name": "DoctorRemoved",
      "type": "event"
    },
    {
      "anonymous": false,
      "inputs": [
        {
          "indexed": true,
          "internalType": "address",
          "name": "doctorAddress",
          "type": "address"
        },
        {
          "indexed": false,
          "internalType": "uint256",
          "name": "timestamp",
          "type": "uint256"
        }
      ],
      "name": "DoctorVerified",
      "type": "event"
    },
    {
      "anonymous": false,
      "inputs": [
        {
          "indexed": true,
          "internalType": "address",
          "name": "doctorAddress",
          "type": "address"
        },
        {
          "indexed": true,
          "internalType": "address",
          "name": "patientAddress",
          "type": "address"
        },
        {
          "indexed": false,
          "internalType": "uint256",
          "name": "expiryTime",
          "type": "uint256"
        },
        {
          "indexed": false,
          "internalType": "uint256",
          "name": "timestamp",
          "type": "uint256"
        }
      ],
      "name": "EmergencyAccessLog",
      "type": "event"
    },
    {
      "anonymous": false,
      "inputs": [
        {
          "indexed": true,
          "internalType": "address",
          "name": "hospitalAddress",
          "type": "address"
        },
        {
          "indexed": false,
          "internalType": "uint256",
          "name": "timestamp",
          "type": "uint256"
        }
      ],
      "name": "HospitalPaused",
      "type": "event"
    },
    {
      "anonymous": false,
      "inputs": [
        {
          "indexed": true,
          "internalType": "address",
          "name": "hospitalAddress",
          "type": "address"
        },
        {
          "indexed": false,
          "internalType": "uint256",
          "name": "timestamp",
          "type": "uint256"
        }
      ],
      "name": "HospitalUnpaused",
      "type": "event"
    },
    {
      "anonymous": false,
      "inputs": [
        {
          "indexed": true,
          "internalType": "address",
          "name": "patientAddress",
          "type": "address"
        },
        {
          "indexed": true,
          "internalType": "address",
          "name": "doctorAddress",
          "type": "address"
        },
        {
          "indexed": false,
          "internalType": "string",
          "name": "ipfsHash",
          "type": "string"
        },
        {
          "indexed": false,
          "internalType": "uint256",
          "name": "timestamp",
          "type": "uint256"
        }
      ],
      "name": "RecordWritten",
      "type": "event"
    },
    {
      "inputs": [],
      "name": "acceptAdmin",
      "outputs": [],
      "stateMutability": "nonpayable",
      "type": "function"
    },
    {
      "inputs": [
        {
          "internalType": "address",
          "name": "",
          "type": "address"
        },
        {
          "internalType": "address",
          "name": "",
          "type": "address"
        }
      ],
      "name": "accessPermissions",
      "outputs": [
        {
          "internalType": "bool",
          "name": "",
          "type": "bool"
        }
      ],
      "stateMutability": "view",
      "type": "function"
    },
    {
      "inputs": [
        {
          "internalType": "address",
          "name": "_doctorAddress",
          "type": "address"
        }
      ],
      "name": "addVerifiedDoctor",
      "outputs": [],
      "stateMutability": "nonpayable",
      "type": "function"
    },
    {
      "inputs": [],
      "name": "admin",
      "outputs": [
        {
          "internalType": "address",
          "name": "",
          "type": "address"
        }
      ],
      "stateMutability": "view",
      "type": "function"
    },
    {
      "inputs": [],
      "name": "billingContract",
      "outputs": [
        {
          "internalType": "contract IBillingHistory",
          "name": "",
          "type": "address"
        }
      ],
      "stateMutability": "view",
      "type": "function"
    },
    {
      "inputs": [],
      "name": "cancelAdminTransfer",
      "outputs": [],
      "stateMutability": "nonpayable",
      "type": "function"
    },
    {
      "inputs": [
        {
          "internalType": "address",
          "name": "_patient",
          "type": "address"
        }
      ],
      "name": "emergencyAccess",
      "outputs": [],
      "stateMutability": "nonpayable",
      "type": "function"
    },
    {
      "inputs": [
        {
          "internalType": "address",
          "name": "",
          "type": "address"
        },
        {
          "internalType": "address",
          "name": "",
          "type": "address"
        }
      ],
      "name": "emergencyAccessExpiry",
      "outputs": [
        {
          "internalType": "uint256",
          "name": "",
          "type": "uint256"
        }
      ],
      "stateMutability": "view",
      "type": "function"
    },
    {
      "inputs": [],
      "name": "getMyRecords",
      "outputs": [
        {
          "components": [
            {
              "internalType": "address",
              "name": "patientAddress",
              "type": "address"
            },
            {
              "internalType": "string",
              "name": "ipfsHash",
              "type": "string"
            },
            {
              "internalType": "uint256",
              "name": "timestamp",
              "type": "uint256"
            },
            {
              "internalType": "address",
              "name": "doctorAddress",
              "type": "address"
            }
          ],
          "internalType": "struct SarawakMedMVP.MedicalRecord[]",
          "name": "",
          "type": "tuple[]"
        }
      ],
      "stateMutability": "view",
      "type": "function"
    },
    {
      "inputs": [],
      "name": "getMyRecordsCount",
      "outputs": [
        {
          "internalType": "uint256",
          "name": "",
          "type": "uint256"
        }
      ],
      "stateMutability": "view",
      "type": "function"
    },
    {
      "inputs": [
        {
          "internalType": "address",
          "name": "_doctorAddress",
          "type": "address"
        }
      ],
      "name": "grantAccess",
      "outputs": [],
      "stateMutability": "nonpayable",
      "type": "function"
    },
    {
      "inputs": [
        {
          "internalType": "address",
          "name": "_doctorAddress",
          "type": "address"
        }
      ],
      "name": "hasAccess",
      "outputs": [
        {
          "internalType": "bool",
          "name": "",
          "type": "bool"
        }
      ],
      "stateMutability": "view",
      "type": "function"
    },
    {
      "inputs": [
        {
          "internalType": "address",
          "name": "_patient",
          "type": "address"
        },
        {
          "internalType": "address",
          "name": "_doctor",
          "type": "address"
        }
      ],
      "name": "hasEmergencyAccess",
      "outputs": [
        {
          "internalType": "bool",
          "name": "",
          "type": "bool"
        }
      ],
      "stateMutability": "view",
      "type": "function"
    },
    {
      "inputs": [
        {
          "internalType": "address",
          "name": "_hospitalAddress",
          "type": "address"
        }
      ],
      "name": "isHospitalPaused",
      "outputs": [
        {
          "internalType": "bool",
          "name": "",
          "type": "bool"
        }
      ],
      "stateMutability": "view",
      "type": "function"
    },
    {
      "inputs": [
        {
          "internalType": "address",
          "name": "_doctorAddress",
          "type": "address"
        }
      ],
      "name": "isVerifiedDoctor",
      "outputs": [
        {
          "internalType": "bool",
          "name": "",
          "type": "bool"
        }
      ],
      "stateMutability": "view",
      "type": "function"
    },
    {
      "inputs": [
        {
          "internalType": "address",
          "name": "_hospitalAddress",
          "type": "address"
        }
      ],
      "name": "pauseHospital",
      "outputs": [],
      "stateMutability": "nonpayable",
      "type": "function"
    },
    {
      "inputs": [
        {
          "internalType": "address",
          "name": "",
          "type": "address"
        }
      ],
      "name": "pausedHospitals",
      "outputs": [
        {
          "internalType": "bool",
          "name": "",
          "type": "bool"
        }
      ],
      "stateMutability": "view",
      "type": "function"
    },
    {
      "inputs": [],
      "name": "pendingAdmin",
      "outputs": [
        {
          "internalType": "address",
          "name": "",
          "type": "address"
        }
      ],
      "stateMutability": "view",
      "type": "function"
    },
    {
      "inputs": [
        {
          "internalType": "address",
          "name": "_newAdmin",
          "type": "address"
        }
      ],
      "name": "proposeAdmin",
      "outputs": [],
      "stateMutability": "nonpayable",
      "type": "function"
    },
    {
      "inputs": [
        {
          "internalType": "address",
          "name": "_patientAddress",
          "type": "address"
        }
      ],
      "name": "readRecords",
      "outputs": [
        {
          "components": [
            {
              "internalType": "address",
              "name": "patientAddress",
              "type": "address"
            },
            {
              "internalType": "string",
              "name": "ipfsHash",
              "type": "string"
            },
            {
              "internalType": "uint256",
              "name": "timestamp",
              "type": "uint256"
            },
            {
              "internalType": "address",
              "name": "doctorAddress",
              "type": "address"
            }
          ],
          "internalType": "struct SarawakMedMVP.MedicalRecord[]",
          "name": "",
          "type": "tuple[]"
        }
      ],
      "stateMutability": "nonpayable",
      "type": "function"
    },
    {
      "inputs": [
        {
          "internalType": "address",
          "name": "_doctorAddress",
          "type": "address"
        }
      ],
      "name": "removeVerifiedDoctor",
      "outputs": [],
      "stateMutability": "nonpayable",
      "type": "function"
    },
    {
      "inputs": [
        {
          "internalType": "address",
          "name": "_doctorAddress",
          "type": "address"
        }
      ],
      "name": "revokeAccess",
      "outputs": [],
      "stateMutability": "nonpayable",
      "type": "function"
    },
    {
      "inputs": [
        {
          "internalType": "address",
          "name": "_billingAddress",
          "type": "address"
        }
      ],
      "name": "setBillingContract",
      "outputs": [],
      "stateMutability": "nonpayable",
      "type": "function"
    },
    {
      "inputs": [
        {
          "internalType": "address",
          "name": "_hospitalAddress",
          "type": "address"
        }
      ],
      "name": "unpauseHospital",
      "outputs": [],
      "stateMutability": "nonpayable",
      "type": "function"
    },
    {
      "inputs": [
        {
          "internalType": "address",
          "name": "",
          "type": "address"
        }
      ],
      "name": "verifiedDoctors",
      "outputs": [
        {
          "internalType": "bool",
          "name": "",
          "type": "bool"
        }
      ],
      "stateMutability": "view",
      "type": "function"
    },
    {
      "inputs": [
        {
          "internalType": "address",
          "name": "_patientAddress",
          "type": "address"
        },
        {
          "internalType": "string",
          "name": "_ipfsHash",
          "type": "string"
        }
      ],
      "name": "writeRecord",
      "outputs": [],
      "stateMutability": "nonpayable",
      "type": "function"
    }
  ],
  "bytecode": "0x608060405234801561001057600080fd5b50336000806101000a81548173ffffffffffffffffffffffffffffffffffffffff021916908373ffffffffffffffffffffffffffffffffffffffff160217905550613abf806100606000396000f3fe608060405234801561001057600080fd5b506004361061018e5760003560e01c806385e68531116100de578063b6ebe05811610097578063d625084f11610071578063d625084f14610491578063dd04f7de146104ad578063e76637ce146104c9578063f851a440146104e75761018e565b8063b6ebe05814610415578063c727b3d914610431578063c927937e146104615761018e565b806385e685311461035357806390218ee81461036f57806390affb511461039f57806395a078e8146103bd5780639a387e70146103ed578063a9852db2146103f75761018e565b8063361dd9a71161014b57806342a8ca1b1161012557806342a8ca1b146102bb57806345ef2567146102eb57806364b3b525146103075780637c875077146103375761018e565b8063361dd9a71461023f5780633a8134df1461026f57806341d724b41461029f5761018e565b80630ae5e739146101935780630e18b681146101af578063147bf6c4146101b95780631bf9d751146101d557806322b2045f146102055780632678224714610221575b600080fd5b6101ad60048036038101906101a8919061287d565b610505565b005b6101b76107c7565b005b6101d360048036038101906101ce919061287d565b6109a9565b005b6101ef60048036038101906101ea919061287d565b610bfd565b6040516101fc91906128c5565b60405180910390f35b61021f600480360381019061021a919061287d565b610c53565b005b610229610de2565b60405161023691906128ef565b60405180910390f35b6102596004803603810190610254919061287d565b610e08565b6040516102669190612ae7565b60405180910390f35b6102896004803603810190610284919061287d565b611179565b60405161029691906128c5565b60405180910390f35b6102b960048036038101906102b4919061287d565b6111cf565b005b6102d560048036038101906102d0919061287d565b6113c8565b6040516102e291906128c5565b60405180910390f35b61030560048036038101906103009190612c3e565b6113e8565b005b610321600480360381019061031c9190612c9a565b61186e565b60405161032e91906128c5565b60405180910390f35b610351600480360381019061034c919061287d565b61189d565b005b61036d6004803603810190610368919061287d565b611ad0565b005b61038960048036038101906103849190612c9a565b611c96565b60405161039691906128c5565b60405180910390f35b6103a7611d30565b6040516103b49190612d39565b60405180910390f35b6103d760048036038101906103d2919061287d565b611d56565b6040516103e491906128c5565b60405180910390f35b6103f5611de9565b005b6103ff611f4c565b60405161040c9190612d63565b60405180910390f35b61042f600480360381019061042a919061287d565b611f96565b005b61044b6004803603810190610446919061287d565b6121c9565b60405161045891906128c5565b60405180910390f35b61047b60048036038101906104769190612c9a565b6121e9565b6040516104889190612d63565b60405180910390f35b6104ab60048036038101906104a6919061287d565b61220e565b005b6104c760048036038101906104c2919061287d565b6123d1565b005b6104d1612603565b6040516104de9190612ae7565b60405180910390f35b6104ef6127e7565b6040516104fc91906128ef565b60405180910390f35b600073ffffffffffffffffffffffffffffffffffffffff168173ffffffffffffffffffffffffffffffffffffffff1603610574576040517f08c379a000000000000000000000000000000000000000000000000000000000815260040161056b90612ddb565b60405180910390fd5b600360008273ffffffffffffffffffffffffffffffffffffffff1673ffffffffffffffffffffffffffffffffffffffff16815260200190815260200160002060009054906101000a900460ff16610600576040517f08c379a00000000000000000000000000000000000000000000000000000000081526004016105f790612e47565b60405180910390fd5b600560003373ffffffffffffffffffffffffffffffffffffffff1673ffffffffffffffffffffffffffffffffffffffff16815260200190815260200160002060008273ffffffffffffffffffffffffffffffffffffffff1673ffffffffffffffffffffffffffffffffffffffff16815260200190815260200160002060009054906101000a900460ff16156106ca576040517f08c379a00000000000000000000000000000000000000000000000000000000081526004016106c190612eb3565b60405180910390fd5b6001600560003373ffffffffffffffffffffffffffffffffffffffff1673ffffffffffffffffffffffffffffffffffffffff16815260200190815260200160002060008373ffffffffffffffffffffffffffffffffffffffff1673ffffffffffffffffffffffffffffffffffffffff16815260200190815260200160002060006101000a81548160ff0219169083151502179055508073ffffffffffffffffffffffffffffffffffffffff163373ffffffffffffffffffffffffffffffffffffffff167f65d0cc1e52d49938ca4ad9f423c79c1b84d914b9a683fbc5d3f93ac3cc5635f5426040516107bc9190612d63565b60405180910390a350565b600160009054906101000a900473ffffffffffffffffffffffffffffffffffffffff1673ffffffffffffffffffffffffffffffffffffffff163373ffffffffffffffffffffffffffffffffffffffff1614610857576040517f08c379a000000000000000000000000000000000000000000000000000000000815260040161084e90612f1f565b60405180910390fd5b60008060009054906101000a900473ffffffffffffffffffffffffffffffffffffffff169050600160009054906101000a900473ffffffffffffffffffffffffffffffffffffffff166000806101000a81548173ffffffffffffffffffffffffffffffffffffffff021916908373ffffffffffffffffffffffffffffffffffffffff1602179055506000600160006101000a81548173ffffffffffffffffffffffffffffffffffffffff021916908373ffffffffffffffffffffffffffffffffffffffff16021790555060008054906101000a900473ffffffffffffffffffffffffffffffffffffffff1673ffffffffffffffffffffffffffffffffffffffff168173ffffffffffffffffffffffffffffffffffffffff167f23088a4a33439bc45814f5d045f0b1afee8d5e0daf3ba4f9576f2662d60d4d5c4260405161099e9190612d63565b60405180910390a350565b60008054906101000a900473ffffffffffffffffffffffffffffffffffffffff1673ffffffffffffffffffffffffffffffffffffffff163373ffffffffffffffffffffffffffffffffffffffff1614610a37576040517f08c379a0000000000000000000000000000000000000000000000000000000008152600401610a2e90612fb1565b60405180910390fd5b600073ffffffffffffffffffffffffffffffffffffffff168173ffffffffffffffffffffffffffffffffffffffff1603610aa6576040517f08c379a0000000000000000000000000000000000000000000000000000000008152600401610a9d9061301d565b60405180910390fd5b60008054906101000a900473ffffffffffffffffffffffffffffffffffffffff1673ffffffffffffffffffffffffffffffffffffffff168173ffffffffffffffffffffffffffffffffffffffff1603610b34576040517f08c379a0000000000000000000000000000000000000000000000000000000008152600401610b2b90613089565b60405180910390fd5b80600160006101000a81548173ffffffffffffffffffffffffffffffffffffffff021916908373ffffffffffffffffffffffffffffffffffffffff1602179055508073ffffffffffffffffffffffffffffffffffffffff1660008054906101000a900473ffffffffffffffffffffffffffffffffffffffff1673ffffffffffffffffffffffffffffffffffffffff167fb39e7eff7169d8015df4d1a3de71acd9519818b2220da3a4615c5b2ba0a927e942604051610bf29190612d63565b60405180910390a350565b6000600360008373ffffffffffffffffffffffffffffffffffffffff1673ffffffffffffffffffffffffffffffffffffffff16815260200190815260200160002060009054906101000a900460ff169050919050565b60008054906101000a900473ffffffffffffffffffffffffffffffffffffffff1673ffffffffffffffffffffffffffffffffffffffff163373ffffffffffffffffffffffffffffffffffffffff1614610ce1576040517f08c379a0000000000000000000000000000000000000000000000000000000008152600401610cd890612fb1565b60405180910390fd5b600073ffffffffffffffffffffffffffffffffffffffff168173ffffffffffffffffffffffffffffffffffffffff1603610d50576040517f08c379a0000000000000000000000000000000000000000000000000000000008152600401610d47906130f5565b60405180910390fd5b80600260006101000a81548173ffffffffffffffffffffffffffffffffffffffff021916908373ffffffffffffffffffffffffffffffffffffffff1602179055508073ffffffffffffffffffffffffffffffffffffffff167ffe45e8695085de56eb8096fc50776def6fdabd1bc471e29d7e83aadc60ca675b42604051610dd79190612d63565b60405180910390a250565b600160009054906101000a900473ffffffffffffffffffffffffffffffffffffffff1681565b60606000600560008473ffffffffffffffffffffffffffffffffffffffff1673ffffffffffffffffffffffffffffffffffffffff16815260200190815260200160002060003373ffffffffffffffffffffffffffffffffffffffff1673ffffffffffffffffffffffffffffffffffffffff16815260200190815260200160002060009054906101000a900460ff1690506000610ea48433611c96565b90508373ffffffffffffffffffffffffffffffffffffffff163373ffffffffffffffffffffffffffffffffffffffff167f0f9f733dd1214bceb6617614b7bcd3da442aa20058858ac0c1428ecd82f22a9b8480610efe5750835b42604051610f0d929190613115565b60405180910390a38180610f1e5750805b80610f5457508373ffffffffffffffffffffffffffffffffffffffff163373ffffffffffffffffffffffffffffffffffffffff16145b610f93576040517f08c379a0000000000000000000000000000000000000000000000000000000008152600401610f8a906131b0565b60405180910390fd5b600460008573ffffffffffffffffffffffffffffffffffffffff1673ffffffffffffffffffffffffffffffffffffffff168152602001908152602001600020805480602002602001604051908101604052809291908181526020016000905b8282101561116c57838290600052602060002090600402016040518060800160405290816000820160009054906101000a900473ffffffffffffffffffffffffffffffffffffffff1673ffffffffffffffffffffffffffffffffffffffff1673ffffffffffffffffffffffffffffffffffffffff16815260200160018201805461107b906131ff565b80601f01602080910402602001604051908101604052809291908181526020018280546110a7906131ff565b80156110f45780601f106110c9576101008083540402835291602001916110f4565b820191906000526020600020905b8154815290600101906020018083116110d757829003601f168201915b50505050508152602001600282015481526020016003820160009054906101000a900473ffffffffffffffffffffffffffffffffffffffff1673ffffffffffffffffffffffffffffffffffffffff1673ffffffffffffffffffffffffffffffffffffffff168152505081526020019060010190610ff2565b5050505092505050919050565b6000600760008373ffffffffffffffffffffffffffffffffffffffff1673ffffffffffffffffffffffffffffffffffffffff16815260200190815260200160002060009054906101000a900460ff169050919050565b600360003373ffffffffffffffffffffffffffffffffffffffff1673ffffffffffffffffffffffffffffffffffffffff16815260200190815260200160002060009054906101000a900460ff1661125b576040517f08c379a0000000000000000000000000000000000000000000000000000000008152600401611252906132a2565b60405180910390fd5b600073ffffffffffffffffffffffffffffffffffffffff168173ffffffffffffffffffffffffffffffffffffffff16036112ca576040517f08c379a00000000000000000000000000000000000000000000000000000000081526004016112c19061330e565b60405180910390fd5b6000610e10426112da919061335d565b905080600660008473ffffffffffffffffffffffffffffffffffffffff1673ffffffffffffffffffffffffffffffffffffffff16815260200190815260200160002060003373ffffffffffffffffffffffffffffffffffffffff1673ffffffffffffffffffffffffffffffffffffffff168152602001908152602001600020819055508173ffffffffffffffffffffffffffffffffffffffff163373ffffffffffffffffffffffffffffffffffffffff167f391d06e1fd95a8568b1ae5e2dd00f612bc994aeba34780399752ad8690d88b3583426040516113bc929190613391565b60405180910390a35050565b60076020528060005260406000206000915054906101000a900460ff1681565b600360003373ffffffffffffffffffffffffffffffffffffffff1673ffffffffffffffffffffffffffffffffffffffff16815260200190815260200160002060009054906101000a900460ff16611474576040517f08c379a000000000000000000000000000000000000000000000000000000000815260040161146b906132a2565b60405180910390fd5b600073ffffffffffffffffffffffffffffffffffffffff168273ffffffffffffffffffffffffffffffffffffffff16036114e3576040517f08c379a00000000000000000000000000000000000000000000000000000000081526004016114da9061330e565b60405180910390fd5b6000815111611527576040517f08c379a000000000000000000000000000000000000000000000000000000000815260040161151e90613406565b60405180910390fd5b600760003373ffffffffffffffffffffffffffffffffffffffff1673ffffffffffffffffffffffffffffffffffffffff16815260200190815260200160002060009054906101000a900460ff16156115b4576040517f08c379a00000000000000000000000000000000000000000000000000000000081526004016115ab90613498565b60405180910390fd5b600060405180608001604052808473ffffffffffffffffffffffffffffffffffffffff1681526020018381526020014281526020013373ffffffffffffffffffffffffffffffffffffffff168152509050600460008473ffffffffffffffffffffffffffffffffffffffff1673ffffffffffffffffffffffffffffffffffffffff16815260200190815260200160002081908060018154018082558091505060019003906000526020600020906004020160009091909190915060008201518160000160006101000a81548173ffffffffffffffffffffffffffffffffffffffff021916908373ffffffffffffffffffffffffffffffffffffffff16021790555060208201518160010190816116ca919061365a565b506040820151816002015560608201518160030160006101000a81548173ffffffffffffffffffffffffffffffffffffffff021916908373ffffffffffffffffffffffffffffffffffffffff1602179055505050600073ffffffffffffffffffffffffffffffffffffffff16600260009054906101000a900473ffffffffffffffffffffffffffffffffffffffff1673ffffffffffffffffffffffffffffffffffffffff161461180257600260009054906101000a900473ffffffffffffffffffffffffffffffffffffffff1673ffffffffffffffffffffffffffffffffffffffff16631d0c0bab336040518263ffffffff1660e01b81526004016117cf91906128ef565b600060405180830381600087803b1580156117e957600080fd5b505af11580156117fd573d6000803e3d6000fd5b505050505b3373ffffffffffffffffffffffffffffffffffffffff168373ffffffffffffffffffffffffffffffffffffffff167f8c0d77c559defe085d4f9b95265940e981c95932fe53f0cb95032e21261dbcee8442604051611861929190613765565b60405180910390a3505050565b60056020528160005260406000206020528060005260406000206000915091509054906101000a900460ff1681565b60008054906101000a900473ffffffffffffffffffffffffffffffffffffffff1673ffffffffffffffffffffffffffffffffffffffff163373ffffffffffffffffffffffffffffffffffffffff161461192b576040517f08c379a000000000000000000000000000000000000000000000000000000000815260040161192290612fb1565b60405180910390fd5b600073ffffffffffffffffffffffffffffffffffffffff168173ffffffffffffffffffffffffffffffffffffffff160361199a576040517f08c379a000000000000000000000000000000000000000000000000000000000815260040161199190612ddb565b60405180910390fd5b600360008273ffffffffffffffffffffffffffffffffffffffff1673ffffffffffffffffffffffffffffffffffffffff16815260200190815260200160002060009054906101000a900460ff1615611a27576040517f08c379a0000000000000000000000000000000000000000000000000000000008152600401611a1e906137e1565b60405180910390fd5b6001600360008373ffffffffffffffffffffffffffffffffffffffff1673ffffffffffffffffffffffffffffffffffffffff16815260200190815260200160002060006101000a81548160ff0219169083151502179055508073ffffffffffffffffffffffffffffffffffffffff167fe2fbb45b2567c8db16d2b0f3af498fbcf981237ea102e00178d85f1fe69bd13f42604051611ac59190612d63565b60405180910390a250565b600560003373ffffffffffffffffffffffffffffffffffffffff1673ffffffffffffffffffffffffffffffffffffffff16815260200190815260200160002060008273ffffffffffffffffffffffffffffffffffffffff1673ffffffffffffffffffffffffffffffffffffffff16815260200190815260200160002060009054906101000a900460ff16611b99576040517f08c379a0000000000000000000000000000000000000000000000000000000008152600401611b909061384d565b60405180910390fd5b6000600560003373ffffffffffffffffffffffffffffffffffffffff1673ffffffffffffffffffffffffffffffffffffffff16815260200190815260200160002060008373ffffffffffffffffffffffffffffffffffffffff1673ffffffffffffffffffffffffffffffffffffffff16815260200190815260200160002060006101000a81548160ff0219169083151502179055508073ffffffffffffffffffffffffffffffffffffffff163373ffffffffffffffffffffffffffffffffffffffff167f6f6a404ffd2cea4713256a4fd9ce99c8cf8cf32d85c2bb8061d1603ff57d50c342604051611c8b9190612d63565b60405180910390a350565b600080600660008573ffffffffffffffffffffffffffffffffffffffff1673ffffffffffffffffffffffffffffffffffffffff16815260200190815260200160002060008473ffffffffffffffffffffffffffffffffffffffff1673ffffffffffffffffffffffffffffffffffffffff168152602001908152602001600020549050600081118015611d2757508042105b91505092915050565b600260009054906101000a900473ffffffffffffffffffffffffffffffffffffffff1681565b6000600560003373ffffffffffffffffffffffffffffffffffffffff1673ffffffffffffffffffffffffffffffffffffffff16815260200190815260200160002060008373ffffffffffffffffffffffffffffffffffffffff1673ffffffffffffffffffffffffffffffffffffffff16815260200190815260200160002060009054906101000a900460ff169050919050565b60008054906101000a900473ffffffffffffffffffffffffffffffffffffffff1673ffffffffffffffffffffffffffffffffffffffff163373ffffffffffffffffffffffffffffffffffffffff1614611e77576040517f08c379a0000000000000000000000000000000000000000000000000000000008152600401611e6e90612fb1565b60405180910390fd5b600073ffffffffffffffffffffffffffffffffffffffff16600160009054906101000a900473ffffffffffffffffffffffffffffffffffffffff1673ffffffffffffffffffffffffffffffffffffffff1603611f08576040517f08c379a0000000000000000000000000000000000000000000000000000000008152600401611eff906138b9565b60405180910390fd5b6000600160006101000a81548173ffffffffffffffffffffffffffffffffffffffff021916908373ffffffffffffffffffffffffffffffffffffffff160217905550565b6000600460003373ffffffffffffffffffffffffffffffffffffffff1673ffffffffffffffffffffffffffffffffffffffff16815260200190815260200160002080549050905090565b60008054906101000a900473ffffffffffffffffffffffffffffffffffffffff1673ffffffffffffffffffffffffffffffffffffffff163373ffffffffffffffffffffffffffffffffffffffff1614612024576040517f08c379a000000000000000000000000000000000000000000000000000000000815260040161201b90612fb1565b60405180910390fd5b600073ffffffffffffffffffffffffffffffffffffffff168173ffffffffffffffffffffffffffffffffffffffff1603612093576040517f08c379a000000000000000000000000000000000000000000000000000000000815260040161208a90613925565b60405180910390fd5b600760008273ffffffffffffffffffffffffffffffffffffffff1673ffffffffffffffffffffffffffffffffffffffff16815260200190815260200160002060009054906101000a900460ff1615612120576040517f08c379a000000000000000000000000000000000000000000000000000000000815260040161211790613991565b60405180910390fd5b6001600760008373ffffffffffffffffffffffffffffffffffffffff1673ffffffffffffffffffffffffffffffffffffffff16815260200190815260200160002060006101000a81548160ff0219169083151502179055508073ffffffffffffffffffffffffffffffffffffffff167f5ccb8ae68a5a195ac70dc15f57466ecc886ffbeccafdddb1f6c4b0b9cc29b4d3426040516121be9190612d63565b60405180910390a250565b60036020528060005260406000206000915054906101000a900460ff1681565b6006602052816000526040600020602052806000526040600020600091509150505481565b60008054906101000a900473ffffffffffffffffffffffffffffffffffffffff1673ffffffffffffffffffffffffffffffffffffffff163373ffffffffffffffffffffffffffffffffffffffff161461229c576040517f08c379a000000000000000000000000000000000000000000000000000000000815260040161229390612fb1565b60405180910390fd5b600360008273ffffffffffffffffffffffffffffffffffffffff1673ffffffffffffffffffffffffffffffffffffffff16815260200190815260200160002060009054906101000a900460ff16612328576040517f08c379a000000000000000000000000000000000000000000000000000000000815260040161231f906139fd565b60405180910390fd5b6000600360008373ffffffffffffffffffffffffffffffffffffffff1673ffffffffffffffffffffffffffffffffffffffff16815260200190815260200160002060006101000a81548160ff0219169083151502179055508073ffffffffffffffffffffffffffffffffffffffff167fa71431043205949af83c925167531f16cee0dd1ccbb22460126afb0e7c12c15e426040516123c69190612d63565b60405180910390a250565b60008054906101000a900473ffffffffffffffffffffffffffffffffffffffff1673ffffffffffffffffffffffffffffffffffffffff163373ffffffffffffffffffffffffffffffffffffffff161461245f576040517f08c379a000000000000000000000000000000000000000000000000000000000815260040161245690612fb1565b60405180910390fd5b600073ffffffffffffffffffffffffffffffffffffffff168173ffffffffffffffffffffffffffffffffffffffff16036124ce576040517f08c379a00000000000000000000000000000000000000000000000000000000081526004016124c590613925565b60405180910390fd5b600760008273ffffffffffffffffffffffffffffffffffffffff1673ffffffffffffffffffffffffffffffffffffffff16815260200190815260200160002060009054906101000a900460ff1661255a576040517f08c379a000000000000000000000000000000000000000000000000000000000815260040161255190613a69565b60405180910390fd5b6000600760008373ffffffffffffffffffffffffffffffffffffffff1673ffffffffffffffffffffffffffffffffffffffff16815260200190815260200160002060006101000a81548160ff0219169083151502179055508073ffffffffffffffffffffffffffffffffffffffff167f6b8684b5c151dbf1c054d28ad5b868ba0358ab90e1b75bf655bf59ddf9b49d63426040516125f89190612d63565b60405180910390a250565b6060600460003373ffffffffffffffffffffffffffffffffffffffff1673ffffffffffffffffffffffffffffffffffffffff168152602001908152602001600020805480602002602001604051908101604052809291908181526020016000905b828210156127de57838290600052602060002090600402016040518060800160405290816000820160009054906101000a900473ffffffffffffffffffffffffffffffffffffffff1673ffffffffffffffffffffffffffffffffffffffff1673ffffffffffffffffffffffffffffffffffffffff1681526020016001820180546126ed906131ff565b80601f0160208091040260200160405190810160405280929190818152602001828054612719906131ff565b80156127665780601f1061273b57610100808354040283529160200191612766565b820191906000526020600020905b81548152906001019060200180831161274957829003601f168201915b50505050508152602001600282015481526020016003820160009054906101000a900473ffffffffffffffffffffffffffffffffffffffff1673ffffffffffffffffffffffffffffffffffffffff1673ffffffffffffffffffffffffffffffffffffffff168152505081526020019060010190612664565b50505050905090565b60008054906101000a900473ffffffffffffffffffffffffffffffffffffffff1681565b6000604051905090565b600080fd5b600080fd5b600073ffffffffffffffffffffffffffffffffffffffff82169050919050565b600061284a8261281f565b9050919050565b61285a8161283f565b811461286557600080fd5b50565b60008135905061287781612851565b92915050565b60006020828403121561289357612892612815565b5b60006128a184828501612868565b91505092915050565b60008115159050919050565b6128bf816128aa565b82525050565b60006020820190506128da60008301846128b6565b92915050565b6128e98161283f565b82525050565b600060208201905061290460008301846128e0565b92915050565b600081519050919050565b600082825260208201905092915050565b6000819050602082019050919050565b61293f8161283f565b82525050565b600081519050919050565b600082825260208201905092915050565b60005b8381101561297f578082015181840152602081019050612964565b60008484015250505050565b6000601f19601f8301169050919050565b60006129a782612945565b6129b18185612950565b93506129c1818560208601612961565b6129ca8161298b565b840191505092915050565b6000819050919050565b6129e8816129d5565b82525050565b6000608083016000830151612a066000860182612936565b5060208301518482036020860152612a1e828261299c565b9150506040830151612a3360408601826129df565b506060830151612a466060860182612936565b508091505092915050565b6000612a5d83836129ee565b905092915050565b6000602082019050919050565b6000612a7d8261290a565b612a878185612915565b935083602082028501612a9985612926565b8060005b85811015612ad55784840389528151612ab68582612a51565b9450612ac183612a65565b925060208a01995050600181019050612a9d565b50829750879550505050505092915050565b60006020820190508181036000830152612b018184612a72565b905092915050565b600080fd5b600080fd5b7f4e487b7100000000000000000000000000000000000000000000000000000000600052604160045260246000fd5b612b4b8261298b565b810181811067ffffffffffffffff82111715612b6a57612b69612b13565b5b80604052505050565b6000612b7d61280b565b9050612b898282612b42565b919050565b600067ffffffffffffffff821115612ba957612ba8612b13565b5b612bb28261298b565b9050602081019050919050565b82818337600083830152505050565b6000612be1612bdc84612b8e565b612b73565b905082815260208101848484011115612bfd57612bfc612b0e565b5b612c08848285612bbf565b509392505050565b600082601f830112612c2557612c24612b09565b5b8135612c35848260208601612bce565b91505092915050565b60008060408385031215612c5557612c54612815565b5b6000612c6385828601612868565b925050602083013567ffffffffffffffff811115612c8457612c8361281a565b5b612c9085828601612c10565b9150509250929050565b60008060408385031215612cb157612cb0612815565b5b6000612cbf85828601612868565b9250506020612cd085828601612868565b9150509250929050565b6000819050919050565b6000612cff612cfa612cf58461281f565b612cda565b61281f565b9050919050565b6000612d1182612ce4565b9050919050565b6000612d2382612d06565b9050919050565b612d3381612d18565b82525050565b6000602082019050612d4e6000830184612d2a565b92915050565b612d5d816129d5565b82525050565b6000602082019050612d786000830184612d54565b92915050565b600082825260208201905092915050565b7f496e76616c696420646f63746f72206164647265737300000000000000000000600082015250565b6000612dc5601683612d7e565b9150612dd082612d8f565b602082019050919050565b60006020820190508181036000830152612df481612db8565b9050919050565b7f446f63746f72206973206e6f7420766572696669656400000000000000000000600082015250565b6000612e31601683612d7e565b9150612e3c82612dfb565b602082019050919050565b60006020820190508181036000830152612e6081612e24565b9050919050565b7f41636365737320616c7265616479206772616e74656400000000000000000000600082015250565b6000612e9d601683612d7e565b9150612ea882612e67565b602082019050919050565b60006020820190508181036000830152612ecc81612e90565b9050919050565b7f4f6e6c792070656e64696e672061646d696e2063616e20616363657074000000600082015250565b6000612f09601d83612d7e565b9150612f1482612ed3565b602082019050919050565b60006020820190508181036000830152612f3881612efc565b9050919050565b7f4f6e6c792061646d696e2063616e2063616c6c20746869732066756e6374696f60008201527f6e00000000000000000000000000000000000000000000000000000000000000602082015250565b6000612f9b602183612d7e565b9150612fa682612f3f565b604082019050919050565b60006020820190508181036000830152612fca81612f8e565b9050919050565b7f496e76616c69642061646d696e20616464726573730000000000000000000000600082015250565b6000613007601583612d7e565b915061301282612fd1565b602082019050919050565b6000602082019050818103600083015261303681612ffa565b9050919050565b7f4e65772061646d696e206d75737420626520646966666572656e740000000000600082015250565b6000613073601b83612d7e565b915061307e8261303d565b602082019050919050565b600060208201905081810360008301526130a281613066565b9050919050565b7f496e76616c69642062696c6c696e672061646472657373000000000000000000600082015250565b60006130df601783612d7e565b91506130ea826130a9565b602082019050919050565b6000602082019050818103600083015261310e816130d2565b9050919050565b600060408201905061312a60008301856128b6565b6131376020830184612d54565b9392505050565b7f4163636573732064656e6965643a204e6f207065726d697373696f6e20746f2060008201527f72656164207468657365207265636f7264730000000000000000000000000000602082015250565b600061319a603283612d7e565b91506131a58261313e565b604082019050919050565b600060208201905081810360008301526131c98161318d565b9050919050565b7f4e487b7100000000000000000000000000000000000000000000000000000000600052602260045260246000fd5b6000600282049050600182168061321757607f821691505b60208210810361322a576132296131d0565b5b50919050565b7f4f6e6c7920766572696669656420646f63746f72732063616e2063616c6c207460008201527f6869732066756e6374696f6e0000000000000000000000000000000000000000602082015250565b600061328c602c83612d7e565b915061329782613230565b604082019050919050565b600060208201905081810360008301526132bb8161327f565b9050919050565b7f496e76616c69642070617469656e742061646472657373000000000000000000600082015250565b60006132f8601783612d7e565b9150613303826132c2565b602082019050919050565b60006020820190508181036000830152613327816132eb565b9050919050565b7f4e487b7100000000000000000000000000000000000000000000000000000000600052601160045260246000fd5b6000613368826129d5565b9150613373836129d5565b925082820190508082111561338b5761338a61332e565b5b92915050565b60006040820190506133a66000830185612d54565b6133b36020830184612d54565b9392505050565b7f4950465320686173682063616e6e6f7420626520656d70747900000000000000600082015250565b60006133f0601983612d7e565b91506133fb826133ba565b602082019050919050565b6000602082019050818103600083015261341f816133e3565b9050919050565b7f486f73706974616c206e6f6465206973207061757365642e20436f6e7461637460008201527f2061646d696e6973747261746f722e0000000000000000000000000000000000602082015250565b6000613482602f83612d7e565b915061348d82613426565b604082019050919050565b600060208201905081810360008301526134b181613475565b9050919050565b60008190508160005260206000209050919050565b60006020601f8301049050919050565b600082821b905092915050565b60006008830261351a7fffffffffffffffffffffffffffffffffffffffffffffffffffffffffffffffff826134dd565b61352486836134dd565b95508019841693508086168417925050509392505050565b600061355761355261354d846129d5565b612cda565b6129d5565b9050919050565b6000819050919050565b6135718361353c565b61358561357d8261355e565b8484546134ea565b825550505050565b600090565b61359a61358d565b6135a5818484613568565b505050565b5b818110156135c9576135be600082613592565b6001810190506135ab565b5050565b601f82111561360e576135df816134b8565b6135e8846134cd565b810160208510156135f7578190505b61360b613603856134cd565b8301826135aa565b50505b505050565b600082821c905092915050565b600061363160001984600802613613565b1980831691505092915050565b600061364a8383613620565b9150826002028217905092915050565b61366382612945565b67ffffffffffffffff81111561367c5761367b612b13565b5b61368682546131ff565b6136918282856135cd565b600060209050601f8311600181146136c457600084156136b2578287015190505b6136bc858261363e565b865550613724565b601f1984166136d2866134b8565b60005b828110156136fa578489015182556001820191506020850194506020810190506136d5565b868310156137175784890151613713601f891682613620565b8355505b6001600288020188555050505b505050505050565b600061373782612945565b6137418185612d7e565b9350613751818560208601612961565b61375a8161298b565b840191505092915050565b6000604082019050818103600083015261377f818561372c565b905061378e6020830184612d54565b9392505050565b7f446f63746f7220616c7265616479207665726966696564000000000000000000600082015250565b60006137cb601783612d7e565b91506137d682613795565b602082019050919050565b600060208201905081810360008301526137fa816137be565b9050919050565b7f416363657373206e6f74206772616e7465640000000000000000000000000000600082015250565b6000613837601283612d7e565b915061384282613801565b602082019050919050565b600060208201905081810360008301526138668161382a565b9050919050565b7f4e6f2070656e64696e672061646d696e207472616e7366657200000000000000600082015250565b60006138a3601983612d7e565b91506138ae8261386d565b602082019050919050565b600060208201905081810360008301526138d281613896565b9050919050565b7f496e76616c696420686f73706974616c20616464726573730000000000000000600082015250565b600061390f601883612d7e565b915061391a826138d9565b602082019050919050565b6000602082019050818103600083015261393e81613902565b9050919050565b7f486f73706974616c20616c726561647920706175736564000000000000000000600082015250565b600061397b601783612d7e565b915061398682613945565b602082019050919050565b600060208201905081810360008301526139aa8161396e565b9050919050565b7f446f63746f72206e6f7420766572696669656400000000000000000000000000600082015250565b60006139e7601383612d7e565b91506139f2826139b1565b602082019050919050565b60006020820190508181036000830152613a16816139da565b9050919050565b7f486f73706974616c206e6f742070617573656400000000000000000000000000600082015250565b6000613a53601383612d7e565b9150613a5e82613a1d565b602082019050919050565b60006020820190508181036000830152613a8281613a46565b905091905056fea26469706673582212205a0724b2296afdc0c5c0dff89da8a1b0c5bbeda1af3c64de72bf5cc1fe141c7864736f6c63430008180033",
  "linkReferences": {},
  "deployedLinkReferences": {}
}