{
  "_format": "hh-sol-artifact-1",
  "contractName": "SarawakMedMVP",
  "sourceName": "contracts/SarawakMedMVP.sol",
  "abi": [
    {
      "inputs": [],
      "stateMutability": "nonpayable",
      "type": "constructor"
    },
    {
      "anonymous": false,
      "inputs": [
        {
          "indexed": true,
          "internalType": "address",
          "name": "doctorAddress",
          "type": "address"
        },
        {
          "indexed": true,
          "internalType": "address",
          "name": "patientAddress",
          "type": "address"
        },
        {
          "indexed": false,
          "internalType": "bool",
          "name": "success",
          "type": "bool"
        },
        {
          "indexed": false,
          "internalType": "uint256",
          "name": "timestamp",
          "type": "uint256"
        }
      ],
      "name": "AccessAttempted",
      "type": "event"
    },
    {
      "anonymous": false,
      "inputs": [
        {
          "indexed": true,
          "internalType": "address",
          "name": "patientAddress",
          "type": "address"
        },
        {
          "indexed": true,
          "internalType": "address",
          "name": "doctorAddress",
          "type": "address"
        },
        {
          "indexed": false,
          "internalType": "uint256",
          "name": "timestamp",
          "type": "uint256"
        }
      ],
      "name": "AccessGranted",
      "type": "event"
    },
    {
      "anonymous": false,
      "inputs": [
        {
          "indexed": true,
          "internalType": "address",
          "name": "patientAddress",
          "type": "address"
        },
        {
          "indexed": true,
          "internalType": "address",
          "name": "doctorAddress",
          "type": "address"
        },
        {
          "indexed": false,
          "internalType": "uint256",
          "name": "timestamp",
          "type": "uint256"
        }
      ],
      "name": "AccessRevoked",
      "type": "event"
    },
    {
      "anonymous": false,
      "inputs": [
        {
          "indexed": true,
          "internalType": "address",
          "name": "billingAddress",
          "type": "address"
        },
        {
          "indexed": false,
          "internalType": "uint256",
          "name": "timestamp",
          "type": "uint256"
        }
      ],
      "name": "BillingContractSet",
      "type": "event"
    },
    {
      "anonymous": false,
      "inputs": [
        {
          "indexed": true,
          "internalType": "address",
          "name": "doctorAddress",
          "type": "address"
        },
        {
          "indexed": false,
          "internalType": "uint256",
          "name": "timestamp",
          "type": "uint256"
        }
      ],
      "name": "DoctorRemoved",
      "type": "event"
    },
    {
      "anonymous": false,
      "inputs": [
        {
          "indexed": true,
          "internalType": "address",
          "name": "doctorAddress",
          "type": "address"
        },
        {
          "indexed": false,
          "internalType": "uint256",
          "name": "timestamp",
          "type": "uint256"
        }
      ],
      "name": "DoctorVerified",
      "type": "event"
    },
    {
      "anonymous": false,
      "inputs": [
        {
          "indexed": true,
          "internalType": "address",
          "name": "doctorAddress",
          "type": "address"
        },
        {
          "indexed": true,
          "internalType": "address",
          "name": "patientAddress",
          "type": "address"
        },
        {
          "indexed": false,
          "internalType": "uint256",
          "name": "expiryTime",
          "type": "uint256"
        },
        {
          "indexed": false,
          "internalType": "uint256",
          "name": "timestamp",
          "type": "uint256"
        }
      ],
      "name": "EmergencyAccessLog",
      "type": "event"
    },
    {
      "anonymous": false,
      "inputs": [
        {
          "indexed": true,
          "internalType": "address",
          "name": "patientAddress",
          "type": "address"
        },
        {
          "indexed": true,
          "internalType": "address",
          "name": "doctorAddress",
          "type": "address"
        },
        {
          "indexed": false,
          "internalType": "string",
          "name": "ipfsHash",
          "type": "string"
        },
        {
          "indexed": false,
          "internalType": "uint256",
          "name": "timestamp",
          "type": "uint256"
        }
      ],
      "name": "RecordWritten",
      "type": "event"
    },
    {
      "inputs": [
        {
          "internalType": "address",
          "name": "",
          "type": "address"
        },
        {
          "internalType": "address",
          "name": "",
          "type": "address"
        }
      ],
      "name": "accessPermissions",
      "outputs": [
        {
          "internalType": "bool",
          "name": "",
          "type": "bool"
        }
      ],
      "stateMutability": "view",
      "type": "function"
    },
    {
      "inputs": [
        {
          "internalType": "address",
          "name": "_doctorAddress",
          "type": "address"
        }
      ],
      "name": "addVerifiedDoctor",
      "outputs": [],
      "stateMutability": "nonpayable",
      "type": "function"
    },
    {
      "inputs": [],
      "name": "admin",
      "outputs": [
        {
          "internalType": "address",
          "name": "",
          "type": "address"
        }
      ],
      "stateMutability": "view",
      "type": "function"
    },
    {
      "inputs": [],
      "name": "billingContract",
      "outputs": [
        {
          "internalType": "contract IBillingHistory",
          "name": "",
          "type": "address"
        }
      ],
      "stateMutability": "view",
      "type": "function"
    },
    {
      "inputs": [
        {
          "internalType": "address",
          "name": "_patient",
          "type": "address"
        }
      ],
      "name": "emergencyAccess",
      "outputs": [],
      "stateMutability": "nonpayable",
      "type": "function"
    },
    {
      "inputs": [
        {
          "internalType": "address",
          "name": "",
          "type": "address"
        },
        {
          "internalType": "address",
          "name": "",
          "type": "address"
        }
      ],
      "name": "emergencyAccessExpiry",
      "outputs": [
        {
          "internalType": "uint256",
          "name": "",
          "type": "uint256"
        }
      ],
      "stateMutability": "view",
      "type": "function"
    },
    {
      "inputs": [],
      "name": "getMyRecords",
      "outputs": [
        {
          "components": [
            {
              "internalType": "address",
              "name": "patientAddress",
              "type": "address"
            },
            {
              "internalType": "string",
              "name": "ipfsHash",
              "type": "string"
            },
            {
              "internalType": "uint256",
              "name": "timestamp",
              "type": "uint256"
            },
            {
              "internalType": "address",
              "name": "doctorAddress",
              "type": "address"
            }
          ],
          "internalType": "struct SarawakMedMVP.MedicalRecord[]",
          "name": "",
          "type": "tuple[]"
        }
      ],
      "stateMutability": "view",
      "type": "function"
    },
    {
      "inputs": [],
      "name": "getMyRecordsCount",
      "outputs": [
        {
          "internalType": "uint256",
          "name": "",
          "type": "uint256"
        }
      ],
      "stateMutability": "view",
      "type": "function"
    },
    {
      "inputs": [
        {
          "internalType": "address",
          "name": "_doctorAddress",
          "type": "address"
        }
      ],
      "name": "grantAccess",
      "outputs": [],
      "stateMutability": "nonpayable",
      "type": "function"
    },
    {
      "inputs": [
        {
          "internalType": "address",
          "name": "_doctorAddress",
          "type": "address"
        }
      ],
      "name": "hasAccess",
      "outputs": [
        {
          "internalType": "bool",
          "name": "",
          "type": "bool"
        }
      ],
      "stateMutability": "view",
      "type": "function"
    },
    {
      "inputs": [
        {
          "internalType": "address",
          "name": "_patient",
          "type": "address"
        },
        {
          "internalType": "address",
          "name": "_doctor",
          "type": "address"
        }
      ],
      "name": "hasEmergencyAccess",
      "outputs": [
        {
          "internalType": "bool",
          "name": "",
          "type": "bool"
        }
      ],
      "stateMutability": "view",
      "type": "function"
    },
    {
      "inputs": [
        {
          "internalType": "address",
          "name": "_doctorAddress",
          "type": "address"
        }
      ],
      "name": "isVerifiedDoctor",
      "outputs": [
        {
          "internalType": "bool",
          "name": "",
          "type": "bool"
        }
      ],
      "stateMutability": "view",
      "type": "function"
    },
    {
      "inputs": [
        {
          "internalType": "address",
          "name": "_patientAddress",
          "type": "address"
        }
      ],
      "name": "readRecords",
      "outputs": [
        {
          "components": [
            {
              "internalType": "address",
              "name": "patientAddress",
              "type": "address"
            },
            {
              "internalType": "string",
              "name": "ipfsHash",
              "type": "string"
            },
            {
              "internalType": "uint256",
              "name": "timestamp",
              "type": "uint256"
            },
            {
              "internalType": "address",
              "name": "doctorAddress",
              "type": "address"
            }
          ],
          "internalType": "struct SarawakMedMVP.MedicalRecord[]",
          "name": "",
          "type": "tuple[]"
        }
      ],
      "stateMutability": "nonpayable",
      "type": "function"
    },
    {
      "inputs": [
        {
          "internalType": "address",
          "name": "_doctorAddress",
          "type": "address"
        }
      ],
      "name": "removeVerifiedDoctor",
      "outputs": [],
      "stateMutability": "nonpayable",
      "type": "function"
    },
    {
      "inputs": [
        {
          "internalType": "address",
          "name": "_doctorAddress",
          "type": "address"
        }
      ],
      "name": "revokeAccess",
      "outputs": [],
      "stateMutability": "nonpayable",
      "type": "function"
    },
    {
      "inputs": [
        {
          "internalType": "address",
          "name": "_billingAddress",
          "type": "address"
        }
      ],
      "name": "setBillingContract",
      "outputs": [],
      "stateMutability": "nonpayable",
      "type": "function"
    },
    {
      "inputs": [
        {
          "internalType": "address",
          "name": "",
          "type": "address"
        }
      ],
      "name": "verifiedDoctors",
      "outputs": [
        {
          "internalType": "bool",
          "name": "",
          "type": "bool"
        }
      ],
      "stateMutability": "view",
      "type": "function"
    },
    {
      "inputs": [
        {
          "internalType": "address",
          "name": "_patientAddress",
          "type": "address"
        },
        {
          "internalType": "string",
          "name": "_ipfsHash",
          "type": "string"
        }
      ],
      "name": "writeRecord",
      "outputs": [],
      "stateMutability": "nonpayable",
      "type": "function"
    }
  ],
  "bytecode": "0x608060405234801561001057600080fd5b50336000806101000a81548173ffffffffffffffffffffffffffffffffffffffff021916908373ffffffffffffffffffffffffffffffffffffffff160217905550612ab4806100606000396000f3fe608060405234801561001057600080fd5b50600436106101165760003560e01c806390218ee8116100a2578063c727b3d911610071578063c727b3d9146102ef578063c927937e1461031f578063d625084f1461034f578063e76637ce1461036b578063f851a4401461038957610116565b806390218ee81461025357806390affb511461028357806395a078e8146102a1578063a9852db2146102d157610116565b806341d724b4116100e957806341d724b4146101b357806345ef2567146101cf57806364b3b525146101eb5780637c8750771461021b57806385e685311461023757610116565b80630ae5e7391461011b5780631bf9d7511461013757806322b2045f14610167578063361dd9a714610183575b600080fd5b61013560048036038101906101309190611bf8565b6103a7565b005b610151600480360381019061014c9190611bf8565b610669565b60405161015e9190611c40565b60405180910390f35b610181600480360381019061017c9190611bf8565b6106bf565b005b61019d60048036038101906101989190611bf8565b61084e565b6040516101aa9190611e38565b60405180910390f35b6101cd60048036038101906101c89190611bf8565b610bbf565b005b6101e960048036038101906101e49190611f8f565b610db8565b005b61020560048036038101906102009190611feb565b6111b1565b6040516102129190611c40565b60405180910390f35b61023560048036038101906102309190611bf8565b6111e0565b005b610251600480360381019061024c9190611bf8565b611413565b005b61026d60048036038101906102689190611feb565b6115d9565b60405161027a9190611c40565b60405180910390f35b61028b611673565b604051610298919061208a565b60405180910390f35b6102bb60048036038101906102b69190611bf8565b611699565b6040516102c89190611c40565b60405180910390f35b6102d961172c565b6040516102e691906120b4565b60405180910390f35b61030960048036038101906103049190611bf8565b611776565b6040516103169190611c40565b60405180910390f35b61033960048036038101906103349190611feb565b611796565b60405161034691906120b4565b60405180910390f35b61036960048036038101906103649190611bf8565b6117bb565b005b61037361197e565b6040516103809190611e38565b60405180910390f35b610391611b62565b60405161039e91906120de565b60405180910390f35b600073ffffffffffffffffffffffffffffffffffffffff168173ffffffffffffffffffffffffffffffffffffffff1603610416576040517f08c379a000000000000000000000000000000000000000000000000000000000815260040161040d90612156565b60405180910390fd5b600260008273ffffffffffffffffffffffffffffffffffffffff1673ffffffffffffffffffffffffffffffffffffffff16815260200190815260200160002060009054906101000a900460ff166104a2576040517f08c379a0000000000000000000000000000000000000000000000000000000008152600401610499906121c2565b60405180910390fd5b600460003373ffffffffffffffffffffffffffffffffffffffff1673ffffffffffffffffffffffffffffffffffffffff16815260200190815260200160002060008273ffffffffffffffffffffffffffffffffffffffff1673ffffffffffffffffffffffffffffffffffffffff16815260200190815260200160002060009054906101000a900460ff161561056c576040517f08c379a00000000000000000000000000000000000000000000000000000000081526004016105639061222e565b60405180910390fd5b6001600460003373ffffffffffffffffffffffffffffffffffffffff1673ffffffffffffffffffffffffffffffffffffffff16815260200190815260200160002060008373ffffffffffffffffffffffffffffffffffffffff1673ffffffffffffffffffffffffffffffffffffffff16815260200190815260200160002060006101000a81548160ff0219169083151502179055508073ffffffffffffffffffffffffffffffffffffffff163373ffffffffffffffffffffffffffffffffffffffff167f65d0cc1e52d49938ca4ad9f423c79c1b84d914b9a683fbc5d3f93ac3cc5635f54260405161065e91906120b4565b60405180910390a350565b6000600260008373ffffffffffffffffffffffffffffffffffffffff1673ffffffffffffffffffffffffffffffffffffffff16815260200190815260200160002060009054906101000a900460ff169050919050565b60008054906101000a900473ffffffffffffffffffffffffffffffffffffffff1673ffffffffffffffffffffffffffffffffffffffff163373ffffffffffffffffffffffffffffffffffffffff161461074d576040517f08c379a0000000000000000000000000000000000000000000000000000000008152600401610744906122c0565b60405180910390fd5b600073ffffffffffffffffffffffffffffffffffffffff168173ffffffffffffffffffffffffffffffffffffffff16036107bc576040517f08c379a00000000000000000000000000000000000000000000000000000000081526004016107b39061232c565b60405180910390fd5b80600160006101000a81548173ffffffffffffffffffffffffffffffffffffffff021916908373ffffffffffffffffffffffffffffffffffffffff1602179055508073ffffffffffffffffffffffffffffffffffffffff167ffe45e8695085de56eb8096fc50776def6fdabd1bc471e29d7e83aadc60ca675b4260405161084391906120b4565b60405180910390a250565b60606000600460008473ffffffffffffffffffffffffffffffffffffffff1673ffffffffffffffffffffffffffffffffffffffff16815260200190815260200160002060003373ffffffffffffffffffffffffffffffffffffffff1673ffffffffffffffffffffffffffffffffffffffff16815260200190815260200160002060009054906101000a900460ff16905060006108ea84336115d9565b90508373ffffffffffffffffffffffffffffffffffffffff163373ffffffffffffffffffffffffffffffffffffffff167f0f9f733dd1214bceb6617614b7bcd3da442aa20058858ac0c1428ecd82f22a9b84806109445750835b4260405161095392919061234c565b60405180910390a381806109645750805b8061099a57508373ffffffffffffffffffffffffffffffffffffffff163373ffffffffffffffffffffffffffffffffffffffff16145b6109d9576040517f08c379a00000000000000000000000000000000000000000000000000000000081526004016109d0906123e7565b60405180910390fd5b600360008573ffffffffffffffffffffffffffffffffffffffff1673ffffffffffffffffffffffffffffffffffffffff168152602001908152602001600020805480602002602001604051908101604052809291908181526020016000905b82821015610bb257838290600052602060002090600402016040518060800160405290816000820160009054906101000a900473ffffffffffffffffffffffffffffffffffffffff1673ffffffffffffffffffffffffffffffffffffffff1673ffffffffffffffffffffffffffffffffffffffff168152602001600182018054610ac190612436565b80601f0160208091040260200160405190810160405280929190818152602001828054610aed90612436565b8015610b3a5780601f10610b0f57610100808354040283529160200191610b3a565b820191906000526020600020905b815481529060010190602001808311610b1d57829003601f168201915b50505050508152602001600282015481526020016003820160009054906101000a900473ffffffffffffffffffffffffffffffffffffffff1673ffffffffffffffffffffffffffffffffffffffff1673ffffffffffffffffffffffffffffffffffffffff168152505081526020019060010190610a38565b5050505092505050919050565b600260003373ffffffffffffffffffffffffffffffffffffffff1673ffffffffffffffffffffffffffffffffffffffff16815260200190815260200160002060009054906101000a900460ff16610c4b576040517f08c379a0000000000000000000000000000000000000000000000000000000008152600401610c42906124d9565b60405180910390fd5b600073ffffffffffffffffffffffffffffffffffffffff168173ffffffffffffffffffffffffffffffffffffffff1603610cba576040517f08c379a0000000000000000000000000000000000000000000000000000000008152600401610cb190612545565b60405180910390fd5b6000610e1042610cca9190612594565b905080600560008473ffffffffffffffffffffffffffffffffffffffff1673ffffffffffffffffffffffffffffffffffffffff16815260200190815260200160002060003373ffffffffffffffffffffffffffffffffffffffff1673ffffffffffffffffffffffffffffffffffffffff168152602001908152602001600020819055508173ffffffffffffffffffffffffffffffffffffffff163373ffffffffffffffffffffffffffffffffffffffff167f391d06e1fd95a8568b1ae5e2dd00f612bc994aeba34780399752ad8690d88b358342604051610dac9291906125c8565b60405180910390a35050565b600260003373ffffffffffffffffffffffffffffffffffffffff1673ffffffffffffffffffffffffffffffffffffffff16815260200190815260200160002060009054906101000a900460ff16610e44576040517f08c379a0000000000000000000000000000000000000000000000000000000008152600401610e3b906124d9565b60405180910390fd5b600073ffffffffffffffffffffffffffffffffffffffff168273ffffffffffffffffffffffffffffffffffffffff1603610eb3576040517f08c379a0000000000000000000000000000000000000000000000000000000008152600401610eaa90612545565b60405180910390fd5b6000815111610ef7576040517f08c379a0000000000000000000000000000000000000000000000000000000008152600401610eee9061263d565b60405180910390fd5b600060405180608001604052808473ffffffffffffffffffffffffffffffffffffffff1681526020018381526020014281526020013373ffffffffffffffffffffffffffffffffffffffff168152509050600360008473ffffffffffffffffffffffffffffffffffffffff1673ffffffffffffffffffffffffffffffffffffffff16815260200190815260200160002081908060018154018082558091505060019003906000526020600020906004020160009091909190915060008201518160000160006101000a81548173ffffffffffffffffffffffffffffffffffffffff021916908373ffffffffffffffffffffffffffffffffffffffff160217905550602082015181600101908161100d91906127ff565b506040820151816002015560608201518160030160006101000a81548173ffffffffffffffffffffffffffffffffffffffff021916908373ffffffffffffffffffffffffffffffffffffffff1602179055505050600073ffffffffffffffffffffffffffffffffffffffff16600160009054906101000a900473ffffffffffffffffffffffffffffffffffffffff1673ffffffffffffffffffffffffffffffffffffffff161461114557600160009054906101000a900473ffffffffffffffffffffffffffffffffffffffff1673ffffffffffffffffffffffffffffffffffffffff16631d0c0bab336040518263ffffffff1660e01b815260040161111291906120de565b600060405180830381600087803b15801561112c57600080fd5b505af1158015611140573d6000803e3d6000fd5b505050505b3373ffffffffffffffffffffffffffffffffffffffff168373ffffffffffffffffffffffffffffffffffffffff167f8c0d77c559defe085d4f9b95265940e981c95932fe53f0cb95032e21261dbcee84426040516111a492919061290a565b60405180910390a3505050565b60046020528160005260406000206020528060005260406000206000915091509054906101000a900460ff1681565b60008054906101000a900473ffffffffffffffffffffffffffffffffffffffff1673ffffffffffffffffffffffffffffffffffffffff163373ffffffffffffffffffffffffffffffffffffffff161461126e576040517f08c379a0000000000000000000000000000000000000000000000000000000008152600401611265906122c0565b60405180910390fd5b600073ffffffffffffffffffffffffffffffffffffffff168173ffffffffffffffffffffffffffffffffffffffff16036112dd576040517f08c379a00000000000000000000000000000000000000000000000000000000081526004016112d490612156565b60405180910390fd5b600260008273ffffffffffffffffffffffffffffffffffffffff1673ffffffffffffffffffffffffffffffffffffffff16815260200190815260200160002060009054906101000a900460ff161561136a576040517f08c379a000000000000000000000000000000000000000000000000000000000815260040161136190612986565b60405180910390fd5b6001600260008373ffffffffffffffffffffffffffffffffffffffff1673ffffffffffffffffffffffffffffffffffffffff16815260200190815260200160002060006101000a81548160ff0219169083151502179055508073ffffffffffffffffffffffffffffffffffffffff167fe2fbb45b2567c8db16d2b0f3af498fbcf981237ea102e00178d85f1fe69bd13f4260405161140891906120b4565b60405180910390a250565b600460003373ffffffffffffffffffffffffffffffffffffffff1673ffffffffffffffffffffffffffffffffffffffff16815260200190815260200160002060008273ffffffffffffffffffffffffffffffffffffffff1673ffffffffffffffffffffffffffffffffffffffff16815260200190815260200160002060009054906101000a900460ff166114dc576040517f08c379a00000000000000000000000000000000000000000000000000000000081526004016114d3906129f2565b60405180910390fd5b6000600460003373ffffffffffffffffffffffffffffffffffffffff1673ffffffffffffffffffffffffffffffffffffffff16815260200190815260200160002060008373ffffffffffffffffffffffffffffffffffffffff1673ffffffffffffffffffffffffffffffffffffffff16815260200190815260200160002060006101000a81548160ff0219169083151502179055508073ffffffffffffffffffffffffffffffffffffffff163373ffffffffffffffffffffffffffffffffffffffff167f6f6a404ffd2cea4713256a4fd9ce99c8cf8cf32d85c2bb8061d1603ff57d50c3426040516115ce91906120b4565b60405180910390a350565b600080600560008573ffffffffffffffffffffffffffffffffffffffff1673ffffffffffffffffffffffffffffffffffffffff16815260200190815260200160002060008473ffffffffffffffffffffffffffffffffffffffff1673ffffffffffffffffffffffffffffffffffffffff16815260200190815260200160002054905060008111801561166a57508042105b91505092915050565b600160009054906101000a900473ffffffffffffffffffffffffffffffffffffffff1681565b6000600460003373ffffffffffffffffffffffffffffffffffffffff1673ffffffffffffffffffffffffffffffffffffffff16815260200190815260200160002060008373ffffffffffffffffffffffffffffffffffffffff1673ffffffffffffffffffffffffffffffffffffffff16815260200190815260200160002060009054906101000a900460ff169050919050565b6000600360003373ffffffffffffffffffffffffffffffffffffffff1673ffffffffffffffffffffffffffffffffffffffff16815260200190815260200160002080549050905090565b60026020528060005260406000206000915054906101000a900460ff1681565b6005602052816000526040600020602052806000526040600020600091509150505481565b60008054906101000a900473ffffffffffffffffffffffffffffffffffffffff1673ffffffffffffffffffffffffffffffffffffffff163373ffffffffffffffffffffffffffffffffffffffff1614611849576040517f08c379a0000000000000000000000000000000000000000000000000000000008152600401611840906122c0565b60405180910390fd5b600260008273ffffffffffffffffffffffffffffffffffffffff1673ffffffffffffffffffffffffffffffffffffffff16815260200190815260200160002060009054906101000a900460ff166118d5576040517f08c379a00000000000000000000000000000000000000000000000000000000081526004016118cc90612a5e565b60405180910390fd5b6000600260008373ffffffffffffffffffffffffffffffffffffffff1673ffffffffffffffffffffffffffffffffffffffff16815260200190815260200160002060006101000a81548160ff0219169083151502179055508073ffffffffffffffffffffffffffffffffffffffff167fa71431043205949af83c925167531f16cee0dd1ccbb22460126afb0e7c12c15e4260405161197391906120b4565b60405180910390a250565b6060600360003373ffffffffffffffffffffffffffffffffffffffff1673ffffffffffffffffffffffffffffffffffffffff168152602001908152602001600020805480602002602001604051908101604052809291908181526020016000905b82821015611b5957838290600052602060002090600402016040518060800160405290816000820160009054906101000a900473ffffffffffffffffffffffffffffffffffffffff1673ffffffffffffffffffffffffffffffffffffffff1673ffffffffffffffffffffffffffffffffffffffff168152602001600182018054611a6890612436565b80601f0160208091040260200160405190810160405280929190818152602001828054611a9490612436565b8015611ae15780601f10611ab657610100808354040283529160200191611ae1565b820191906000526020600020905b815481529060010190602001808311611ac457829003601f168201915b50505050508152602001600282015481526020016003820160009054906101000a900473ffffffffffffffffffffffffffffffffffffffff1673ffffffffffffffffffffffffffffffffffffffff1673ffffffffffffffffffffffffffffffffffffffff1681525050815260200190600101906119df565b50505050905090565b60008054906101000a900473ffffffffffffffffffffffffffffffffffffffff1681565b6000604051905090565b600080fd5b600080fd5b600073ffffffffffffffffffffffffffffffffffffffff82169050919050565b6000611bc582611b9a565b9050919050565b611bd581611bba565b8114611be057600080fd5b50565b600081359050611bf281611bcc565b92915050565b600060208284031215611c0e57611c0d611b90565b5b6000611c1c84828501611be3565b91505092915050565b60008115159050919050565b611c3a81611c25565b82525050565b6000602082019050611c556000830184611c31565b92915050565b600081519050919050565b600082825260208201905092915050565b6000819050602082019050919050565b611c9081611bba565b82525050565b600081519050919050565b600082825260208201905092915050565b60005b83811015611cd0578082015181840152602081019050611cb5565b60008484015250505050565b6000601f19601f8301169050919050565b6000611cf882611c96565b611d028185611ca1565b9350611d12818560208601611cb2565b611d1b81611cdc565b840191505092915050565b6000819050919050565b611d3981611d26565b82525050565b6000608083016000830151611d576000860182611c87565b5060208301518482036020860152611d6f8282611ced565b9150506040830151611d846040860182611d30565b506060830151611d976060860182611c87565b508091505092915050565b6000611dae8383611d3f565b905092915050565b6000602082019050919050565b6000611dce82611c5b565b611dd88185611c66565b935083602082028501611dea85611c77565b8060005b85811015611e265784840389528151611e078582611da2565b9450611e1283611db6565b925060208a01995050600181019050611dee565b50829750879550505050505092915050565b60006020820190508181036000830152611e528184611dc3565b905092915050565b600080fd5b600080fd5b7f4e487b7100000000000000000000000000000000000000000000000000000000600052604160045260246000fd5b611e9c82611cdc565b810181811067ffffffffffffffff82111715611ebb57611eba611e64565b5b80604052505050565b6000611ece611b86565b9050611eda8282611e93565b919050565b600067ffffffffffffffff821115611efa57611ef9611e64565b5b611f0382611cdc565b9050602081019050919050565b82818337600083830152505050565b6000611f32611f2d84611edf565b611ec4565b905082815260208101848484011115611f4e57611f4d611e5f565b5b611f59848285611f10565b509392505050565b600082601f830112611f7657611f75611e5a565b5b8135611f86848260208601611f1f565b91505092915050565b60008060408385031215611fa657611fa5611b90565b5b6000611fb485828601611be3565b925050602083013567ffffffffffffffff811115611fd557611fd4611b95565b5b611fe185828601611f61565b9150509250929050565b6000806040838503121561200257612001611b90565b5b600061201085828601611be3565b925050602061202185828601611be3565b9150509250929050565b6000819050919050565b600061205061204b61204684611b9a565b61202b565b611b9a565b9050919050565b600061206282612035565b9050919050565b600061207482612057565b9050919050565b61208481612069565b82525050565b600060208201905061209f600083018461207b565b92915050565b6120ae81611d26565b82525050565b60006020820190506120c960008301846120a5565b92915050565b6120d881611bba565b82525050565b60006020820190506120f360008301846120cf565b92915050565b600082825260208201905092915050565b7f496e76616c696420646f63746f72206164647265737300000000000000000000600082015250565b60006121406016836120f9565b915061214b8261210a565b602082019050919050565b6000602082019050818103600083015261216f81612133565b9050919050565b7f446f63746f72206973206e6f7420766572696669656400000000000000000000600082015250565b60006121ac6016836120f9565b91506121b782612176565b602082019050919050565b600060208201905081810360008301526121db8161219f565b9050919050565b7f41636365737320616c7265616479206772616e74656400000000000000000000600082015250565b60006122186016836120f9565b9150612223826121e2565b602082019050919050565b600060208201905081810360008301526122478161220b565b9050919050565b7f4f6e6c792061646d696e2063616e2063616c6c20746869732066756e6374696f60008201527f6e00000000000000000000000000000000000000000000000000000000000000602082015250565b60006122aa6021836120f9565b91506122b58261224e565b604082019050919050565b600060208201905081810360008301526122d98161229d565b9050919050565b7f496e76616c69642062696c6c696e672061646472657373000000000000000000600082015250565b60006123166017836120f9565b9150612321826122e0565b602082019050919050565b6000602082019050818103600083015261234581612309565b9050919050565b60006040820190506123616000830185611c31565b61236e60208301846120a5565b9392505050565b7f4163636573732064656e6965643a204e6f207065726d697373696f6e20746f2060008201527f72656164207468657365207265636f7264730000000000000000000000000000602082015250565b60006123d16032836120f9565b91506123dc82612375565b604082019050919050565b60006020820190508181036000830152612400816123c4565b9050919050565b7f4e487b7100000000000000000000000000000000000000000000000000000000600052602260045260246000fd5b6000600282049050600182168061244e57607f821691505b60208210810361246157612460612407565b5b50919050565b7f4f6e6c7920766572696669656420646f63746f72732063616e2063616c6c207460008201527f6869732066756e6374696f6e0000000000000000000000000000000000000000602082015250565b60006124c3602c836120f9565b91506124ce82612467565b604082019050919050565b600060208201905081810360008301526124f2816124b6565b9050919050565b7f496e76616c69642070617469656e742061646472657373000000000000000000600082015250565b600061252f6017836120f9565b915061253a826124f9565b602082019050919050565b6000602082019050818103600083015261255e81612522565b9050919050565b7f4e487b7100000000000000000000000000000000000000000000000000000000600052601160045260246000fd5b600061259f82611d26565b91506125aa83611d26565b92508282019050808211156125c2576125c1612565565b5b92915050565b60006040820190506125dd60008301856120a5565b6125ea60208301846120a5565b9392505050565b7f4950465320686173682063616e6e6f7420626520656d70747900000000000000600082015250565b60006126276019836120f9565b9150612632826125f1565b602082019050919050565b600060208201905081810360008301526126568161261a565b9050919050565b60008190508160005260206000209050919050565b60006020601f8301049050919050565b600082821b905092915050565b6000600883026126bf7fffffffffffffffffffffffffffffffffffffffffffffffffffffffffffffffff82612682565b6126c98683612682565b95508019841693508086168417925050509392505050565b60006126fc6126f76126f284611d26565b61202b565b611d26565b9050919050565b6000819050919050565b612716836126e1565b61272a61272282612703565b84845461268f565b825550505050565b600090565b61273f612732565b61274a81848461270d565b505050565b5b8181101561276e57612763600082612737565b600181019050612750565b5050565b601f8211156127b3576127848161265d565b61278d84612672565b8101602085101561279c578190505b6127b06127a885612672565b83018261274f565b50505b505050565b600082821c905092915050565b60006127d6600019846008026127b8565b1980831691505092915050565b60006127ef83836127c5565b9150826002028217905092915050565b61280882611c96565b67ffffffffffffffff81111561282157612820611e64565b5b61282b8254612436565b612836828285612772565b600060209050601f8311600181146128695760008415612857578287015190505b61286185826127e3565b8655506128c9565b601f1984166128778661265d565b60005b8281101561289f5784890151825560018201915060208501945060208101905061287a565b868310156128bc57848901516128b8601f8916826127c5565b8355505b6001600288020188555050505b505050505050565b60006128dc82611c96565b6128e681856120f9565b93506128f6818560208601611cb2565b6128ff81611cdc565b840191505092915050565b6000604082019050818103600083015261292481856128d1565b905061293360208301846120a5565b9392505050565b7f446f63746f7220616c7265616479207665726966696564000000000000000000600082015250565b60006129706017836120f9565b915061297b8261293a565b602082019050919050565b6000602082019050818103600083015261299f81612963565b9050919050565b7f416363657373206e6f74206772616e7465640000000000000000000000000000600082015250565b60006129dc6012836120f9565b91506129e7826129a6565b602082019050919050565b60006020820190508181036000830152612a0b816129cf565b9050919050565b7f446f63746f72206e6f7420766572696669656400000000000000000000000000600082015250565b6000612a486013836120f9565b9150612a5382612a12565b602082019050919050565b60006020820190508181036000830152612a7781612a3b565b905091905056fea2646970667358221220733f8bd9ff5bd3d5323b127b9da4ada73a06e61d639b3e33bedf2b074924353864736f6c63430008180033",
  "linkReferences": {},
  "deployedLinkReferences": {}
}